{
  "abi": [
    {
      "anonymous": false,
      "inputs": [
        {
          "indexed": false,
          "internalType": "uint256",
          "name": "id",
          "type": "uint256"
        },
        {
          "indexed": false,
          "internalType": "address",
          "name": "owner",
          "type": "address"
        },
        {
          "indexed": false,
          "internalType": "string",
          "name": "displayName",
          "type": "string"
        },
        {
          "indexed": false,
          "internalType": "string",
          "name": "imageUrl",
          "type": "string"
        }
      ],
      "name": "NewGravatar",
      "type": "event"
    },
    {
      "anonymous": false,
      "inputs": [
        {
          "indexed": false,
          "internalType": "uint256",
          "name": "id",
          "type": "uint256"
        },
        {
          "indexed": false,
          "internalType": "address",
          "name": "owner",
          "type": "address"
        },
        {
          "indexed": false,
          "internalType": "string",
          "name": "displayName",
          "type": "string"
        },
        {
          "indexed": false,
          "internalType": "string",
          "name": "imageUrl",
          "type": "string"
        }
      ],
      "name": "UpdatedGravatar",
      "type": "event"
    },
    {
      "inputs": [
        {
          "internalType": "string",
          "name": "_displayName",
          "type": "string"
        },
        {
          "internalType": "string",
          "name": "_imageUrl",
          "type": "string"
        }
      ],
      "name": "createGravatar",
      "outputs": [],
      "stateMutability": "nonpayable",
      "type": "function"
    },
    {
      "inputs": [
        {
          "internalType": "address",
          "name": "owner",
          "type": "address"
        }
      ],
      "name": "getGravatar",
      "outputs": [
        {
          "internalType": "string",
          "name": "",
          "type": "string"
        },
        {
          "internalType": "string",
          "name": "",
          "type": "string"
        }
      ],
      "stateMutability": "view",
      "type": "function"
    },
    {
      "inputs": [
        {
          "internalType": "uint256",
          "name": "",
          "type": "uint256"
        }
      ],
      "name": "gravatarToOwner",
      "outputs": [
        {
          "internalType": "address",
          "name": "",
          "type": "address"
        }
      ],
      "stateMutability": "view",
      "type": "function"
    },
    {
      "inputs": [
        {
          "internalType": "uint256",
          "name": "",
          "type": "uint256"
        }
      ],
      "name": "gravatars",
      "outputs": [
        {
          "internalType": "address",
          "name": "owner",
          "type": "address"
        },
        {
          "internalType": "string",
          "name": "displayName",
          "type": "string"
        },
        {
          "internalType": "string",
          "name": "imageUrl",
          "type": "string"
        }
      ],
      "stateMutability": "view",
      "type": "function"
    },
    {
      "inputs": [
        {
          "internalType": "address",
          "name": "",
          "type": "address"
        }
      ],
      "name": "ownerToGravatar",
      "outputs": [
        {
          "internalType": "uint256",
          "name": "",
          "type": "uint256"
        }
      ],
      "stateMutability": "view",
      "type": "function"
    },
    {
      "inputs": [],
      "name": "setMythicalGravatar",
      "outputs": [],
      "stateMutability": "nonpayable",
      "type": "function"
    },
    {
      "inputs": [
        {
          "internalType": "string",
          "name": "_imageUrl",
          "type": "string"
        }
      ],
      "name": "updateGravatarImage",
      "outputs": [],
      "stateMutability": "nonpayable",
      "type": "function"
    },
    {
      "inputs": [
        {
          "internalType": "string",
          "name": "_displayName",
          "type": "string"
        }
      ],
      "name": "updateGravatarName",
      "outputs": [],
      "stateMutability": "nonpayable",
      "type": "function"
    }
  ],
  "address": "0x4a045abD4bf73f6466F078Ba8d7F1af1c8Ab5d0c",
  "args": [],
  "bytecode": "0x608060405234801561001057600080fd5b50611522806100206000396000f3fe608060405234801561001057600080fd5b50600436106100875760003560e01c8063a5ac36341161005b578063a5ac363414610113578063b18588fb14610143578063cdb3344a1461015f578063d5ce24ed1461017b57610087565b806281d6e51461008c5780631d4f2c6d146100a8578063359c1f72146100b257806388d0d391146100e3575b600080fd5b6100a660048036038101906100a19190610f2c565b6101ad565b005b6100b061040b565b005b6100cc60048036038101906100c79190610f03565b6105a3565b6040516100da929190611139565b60405180910390f35b6100fd60048036038101906100f89190610fd9565b6107a2565b60405161010a91906110d9565b60405180910390f35b61012d60048036038101906101289190610f03565b6107d5565b60405161013a9190611170565b60405180910390f35b61015d60048036038101906101589190610f2c565b6107ed565b005b61017960048036038101906101749190610f6d565b610a4b565b005b61019560048036038101906101909190610fd9565b610c64565b6040516101a4939291906110f4565b60405180910390f35b6000600260003373ffffffffffffffffffffffffffffffffffffffff1673ffffffffffffffffffffffffffffffffffffffff1681526020019081526020016000205414156101fa57600080fd5b6000600260003373ffffffffffffffffffffffffffffffffffffffff1673ffffffffffffffffffffffffffffffffffffffff1681526020019081526020016000205481548110610273577f4e487b7100000000000000000000000000000000000000000000000000000000600052603260045260246000fd5b906000526020600020906003020160000160009054906101000a900473ffffffffffffffffffffffffffffffffffffffff1673ffffffffffffffffffffffffffffffffffffffff163373ffffffffffffffffffffffffffffffffffffffff16146102dc57600080fd5b6000600260003373ffffffffffffffffffffffffffffffffffffffff1673ffffffffffffffffffffffffffffffffffffffff168152602001908152602001600020549050816000828154811061035b577f4e487b7100000000000000000000000000000000000000000000000000000000600052603260045260246000fd5b9060005260206000209060030201600201908051906020019061037f929190610dce565b507f76571b7a897a1509c641587568218a290018fbdc8b9a724f17b77ff0eec22c0c8133600084815481106103dd577f4e487b7100000000000000000000000000000000000000000000000000000000600052603260045260246000fd5b9060005260206000209060030201600101856040516103ff9493929190611231565b60405180910390a15050565b738d3e809fbd258083a5ba004a527159da535c8aba73ffffffffffffffffffffffffffffffffffffffff163373ffffffffffffffffffffffffffffffffffffffff161461045757600080fd5b60006040518060600160405280600073ffffffffffffffffffffffffffffffffffffffff1681526020016040518060400160405280600181526020017f200000000000000000000000000000000000000000000000000000000000000081525081526020016040518060400160405280600181526020017f2000000000000000000000000000000000000000000000000000000000000000815250815250908060018154018082558091505060019003906000526020600020906003020160009091909190915060008201518160000160006101000a81548173ffffffffffffffffffffffffffffffffffffffff021916908373ffffffffffffffffffffffffffffffffffffffff1602179055506020820151816001019080519060200190610581929190610dce565b50604082015181600201908051906020019061059e929190610dce565b505050565b6060806000600260008573ffffffffffffffffffffffffffffffffffffffff1673ffffffffffffffffffffffffffffffffffffffff16815260200190815260200160002054905060008181548110610624577f4e487b7100000000000000000000000000000000000000000000000000000000600052603260045260246000fd5b90600052602060002090600302016001016000828154811061066f577f4e487b7100000000000000000000000000000000000000000000000000000000600052603260045260246000fd5b906000526020600020906003020160020181805461068c906113bd565b80601f01602080910402602001604051908101604052809291908181526020018280546106b8906113bd565b80156107055780601f106106da57610100808354040283529160200191610705565b820191906000526020600020905b8154815290600101906020018083116106e857829003601f168201915b50505050509150808054610718906113bd565b80601f0160208091040260200160405190810160405280929190818152602001828054610744906113bd565b80156107915780601f1061076657610100808354040283529160200191610791565b820191906000526020600020905b81548152906001019060200180831161077457829003601f168201915b505050505090509250925050915091565b60016020528060005260406000206000915054906101000a900473ffffffffffffffffffffffffffffffffffffffff1681565b60026020528060005260406000206000915090505481565b6000600260003373ffffffffffffffffffffffffffffffffffffffff1673ffffffffffffffffffffffffffffffffffffffff16815260200190815260200160002054141561083a57600080fd5b6000600260003373ffffffffffffffffffffffffffffffffffffffff1673ffffffffffffffffffffffffffffffffffffffff16815260200190815260200160002054815481106108b3577f4e487b7100000000000000000000000000000000000000000000000000000000600052603260045260246000fd5b906000526020600020906003020160000160009054906101000a900473ffffffffffffffffffffffffffffffffffffffff1673ffffffffffffffffffffffffffffffffffffffff163373ffffffffffffffffffffffffffffffffffffffff161461091c57600080fd5b6000600260003373ffffffffffffffffffffffffffffffffffffffff1673ffffffffffffffffffffffffffffffffffffffff168152602001908152602001600020549050816000828154811061099b577f4e487b7100000000000000000000000000000000000000000000000000000000600052603260045260246000fd5b906000526020600020906003020160010190805190602001906109bf929190610dce565b507f76571b7a897a1509c641587568218a290018fbdc8b9a724f17b77ff0eec22c0c81338460008581548110610a1e577f4e487b7100000000000000000000000000000000000000000000000000000000600052603260045260246000fd5b9060005260206000209060030201600201604051610a3f94939291906111de565b60405180910390a15050565b6000600260003373ffffffffffffffffffffffffffffffffffffffff1673ffffffffffffffffffffffffffffffffffffffff1681526020019081526020016000205414610a9757600080fd5b600060405180606001604052803373ffffffffffffffffffffffffffffffffffffffff16815260200184815260200183815250908060018154018082558091505060019003906000526020600020906003020160009091909190915060008201518160000160006101000a81548173ffffffffffffffffffffffffffffffffffffffff021916908373ffffffffffffffffffffffffffffffffffffffff1602179055506020820151816001019080519060200190610b56929190610dce565b506040820151816002019080519060200190610b73929190610dce565b50505060006001600080549050610b8a919061130b565b9050336001600083815260200190815260200160002060006101000a81548173ffffffffffffffffffffffffffffffffffffffff021916908373ffffffffffffffffffffffffffffffffffffffff16021790555080600260003373ffffffffffffffffffffffffffffffffffffffff1673ffffffffffffffffffffffffffffffffffffffff168152602001908152602001600020819055507f9ab3aefb2ba6dc12910ac1bce4692cf5c3c0d06cff16327c64a3ef78228b130b81338585604051610c57949392919061118b565b60405180910390a1505050565b60008181548110610c7457600080fd5b90600052602060002090600302016000915090508060000160009054906101000a900473ffffffffffffffffffffffffffffffffffffffff1690806001018054610cbd906113bd565b80601f0160208091040260200160405190810160405280929190818152602001828054610ce9906113bd565b8015610d365780601f10610d0b57610100808354040283529160200191610d36565b820191906000526020600020905b815481529060010190602001808311610d1957829003601f168201915b505050505090806002018054610d4b906113bd565b80601f0160208091040260200160405190810160405280929190818152602001828054610d77906113bd565b8015610dc45780601f10610d9957610100808354040283529160200191610dc4565b820191906000526020600020905b815481529060010190602001808311610da757829003601f168201915b5050505050905083565b828054610dda906113bd565b90600052602060002090601f016020900481019282610dfc5760008555610e43565b82601f10610e1557805160ff1916838001178555610e43565b82800160010185558215610e43579182015b82811115610e42578251825591602001919060010190610e27565b5b509050610e509190610e54565b5090565b5b80821115610e6d576000816000905550600101610e55565b5090565b6000610e84610e7f846112a9565b611284565b905082815260208101848484011115610e9c57600080fd5b610ea784828561137b565b509392505050565b600081359050610ebe816114be565b92915050565b600082601f830112610ed557600080fd5b8135610ee5848260208601610e71565b91505092915050565b600081359050610efd816114d5565b92915050565b600060208284031215610f1557600080fd5b6000610f2384828501610eaf565b91505092915050565b600060208284031215610f3e57600080fd5b600082013567ffffffffffffffff811115610f5857600080fd5b610f6484828501610ec4565b91505092915050565b60008060408385031215610f8057600080fd5b600083013567ffffffffffffffff811115610f9a57600080fd5b610fa685828601610ec4565b925050602083013567ffffffffffffffff811115610fc357600080fd5b610fcf85828601610ec4565b9150509250929050565b600060208284031215610feb57600080fd5b6000610ff984828501610eee565b91505092915050565b61100b8161133f565b82525050565b600061101c826112ef565b61102681856112fa565b935061103681856020860161138a565b61103f816114ad565b840191505092915050565b60008154611057816113bd565b61106181866112fa565b9450600182166000811461107c576001811461108e576110c1565b60ff19831686526020860193506110c1565b611097856112da565b60005b838110156110b95781548189015260018201915060208101905061109a565b808801955050505b50505092915050565b6110d381611371565b82525050565b60006020820190506110ee6000830184611002565b92915050565b60006060820190506111096000830186611002565b818103602083015261111b8185611011565b9050818103604083015261112f8184611011565b9050949350505050565b600060408201905081810360008301526111538185611011565b905081810360208301526111678184611011565b90509392505050565b600060208201905061118560008301846110ca565b92915050565b60006080820190506111a060008301876110ca565b6111ad6020830186611002565b81810360408301526111bf8185611011565b905081810360608301526111d38184611011565b905095945050505050565b60006080820190506111f360008301876110ca565b6112006020830186611002565b81810360408301526112128185611011565b90508181036060830152611226818461104a565b905095945050505050565b600060808201905061124660008301876110ca565b6112536020830186611002565b8181036040830152611265818561104a565b905081810360608301526112798184611011565b905095945050505050565b600061128e61129f565b905061129a82826113ef565b919050565b6000604051905090565b600067ffffffffffffffff8211156112c4576112c361147e565b5b6112cd826114ad565b9050602081019050919050565b60008190508160005260206000209050919050565b600081519050919050565b600082825260208201905092915050565b600061131682611371565b915061132183611371565b92508282101561133457611333611420565b5b828203905092915050565b600061134a82611351565b9050919050565b600073ffffffffffffffffffffffffffffffffffffffff82169050919050565b6000819050919050565b82818337600083830152505050565b60005b838110156113a857808201518184015260208101905061138d565b838111156113b7576000848401525b50505050565b600060028204905060018216806113d557607f821691505b602082108114156113e9576113e861144f565b5b50919050565b6113f8826114ad565b810181811067ffffffffffffffff821117156114175761141661147e565b5b80604052505050565b7f4e487b7100000000000000000000000000000000000000000000000000000000600052601160045260246000fd5b7f4e487b7100000000000000000000000000000000000000000000000000000000600052602260045260246000fd5b7f4e487b7100000000000000000000000000000000000000000000000000000000600052604160045260246000fd5b6000601f19601f8301169050919050565b6114c78161133f565b81146114d257600080fd5b50565b6114de81611371565b81146114e957600080fd5b5056fea2646970667358221220985230a4dde5db0977142d119dc14d65b32a399edc8ddfbe92ce7305a880272064736f6c63430008040033",
  "devdoc": {
    "kind": "dev",
    "methods": {},
    "version": 1
  },
  "solcInputHash": "e1880b595025e2b5513b9eb385607880",
  "storageLayout": {
    "storage": [
      {
        "astId": 2229,
        "contract": "contracts/Gravity.sol:GravatarRegistry",
        "label": "gravatars",
        "offset": 0,
        "slot": "0",
        "type": "t_array(t_struct(Gravatar)2225_storage)dyn_storage"
      },
      {
        "astId": 2233,
        "contract": "contracts/Gravity.sol:GravatarRegistry",
        "label": "gravatarToOwner",
        "offset": 0,
        "slot": "1",
        "type": "t_mapping(t_uint256,t_address)"
      },
      {
        "astId": 2237,
        "contract": "contracts/Gravity.sol:GravatarRegistry",
        "label": "ownerToGravatar",
        "offset": 0,
        "slot": "2",
        "type": "t_mapping(t_address,t_uint256)"
      }
    ],
    "types": {
      "t_address": {
        "encoding": "inplace",
        "label": "address",
        "numberOfBytes": "20"
      },
      "t_array(t_struct(Gravatar)2225_storage)dyn_storage": {
        "base": "t_struct(Gravatar)2225_storage",
        "encoding": "dynamic_array",
        "label": "struct GravatarRegistry.Gravatar[]",
        "numberOfBytes": "32"
      },
      "t_mapping(t_address,t_uint256)": {
        "encoding": "mapping",
        "key": "t_address",
        "label": "mapping(address => uint256)",
        "numberOfBytes": "32",
        "value": "t_uint256"
      },
      "t_mapping(t_uint256,t_address)": {
        "encoding": "mapping",
        "key": "t_uint256",
        "label": "mapping(uint256 => address)",
        "numberOfBytes": "32",
        "value": "t_address"
      },
      "t_string_storage": {
        "encoding": "bytes",
        "label": "string",
        "numberOfBytes": "32"
      },
      "t_struct(Gravatar)2225_storage": {
        "encoding": "inplace",
        "label": "struct GravatarRegistry.Gravatar",
        "members": [
          {
            "astId": 2220,
            "contract": "contracts/Gravity.sol:GravatarRegistry",
            "label": "owner",
            "offset": 0,
            "slot": "0",
            "type": "t_address"
          },
          {
            "astId": 2222,
            "contract": "contracts/Gravity.sol:GravatarRegistry",
            "label": "displayName",
            "offset": 0,
            "slot": "1",
            "type": "t_string_storage"
          },
          {
            "astId": 2224,
            "contract": "contracts/Gravity.sol:GravatarRegistry",
            "label": "imageUrl",
            "offset": 0,
            "slot": "2",
            "type": "t_string_storage"
          }
        ],
        "numberOfBytes": "96"
      },
      "t_uint256": {
        "encoding": "inplace",
        "label": "uint256",
        "numberOfBytes": "32"
      }
    }
  },
  "transactionHash": "0xd581491100b68a27de69a9c491dc18ab16d0241dfe9c350692a2851fc973fead",
  "userdoc": {
    "kind": "user",
    "methods": {},
    "version": 1
  }
}