{
  "abi": [
    {
      "inputs": [],
      "stateMutability": "nonpayable",
      "type": "constructor"
    },
    {
      "anonymous": false,
      "inputs": [
        {
          "indexed": true,
          "internalType": "address",
          "name": "owner",
          "type": "address"
        },
        {
          "indexed": true,
          "internalType": "address",
          "name": "approved",
          "type": "address"
        },
        {
          "indexed": true,
          "internalType": "uint256",
          "name": "tokenId",
          "type": "uint256"
        }
      ],
      "name": "Approval",
      "type": "event"
    },
    {
      "anonymous": false,
      "inputs": [
        {
          "indexed": true,
          "internalType": "address",
          "name": "owner",
          "type": "address"
        },
        {
          "indexed": true,
          "internalType": "address",
          "name": "operator",
          "type": "address"
        },
        {
          "indexed": false,
          "internalType": "bool",
          "name": "approved",
          "type": "bool"
        }
      ],
      "name": "ApprovalForAll",
      "type": "event"
    },
    {
      "anonymous": false,
      "inputs": [
        {
          "indexed": true,
          "internalType": "address",
          "name": "previousOwner",
          "type": "address"
        },
        {
          "indexed": true,
          "internalType": "address",
          "name": "newOwner",
          "type": "address"
        }
      ],
      "name": "OwnershipTransferred",
      "type": "event"
    },
    {
      "anonymous": false,
      "inputs": [
        {
          "indexed": true,
          "internalType": "address",
          "name": "from",
          "type": "address"
        },
        {
          "indexed": true,
          "internalType": "address",
          "name": "to",
          "type": "address"
        },
        {
          "indexed": true,
          "internalType": "uint256",
          "name": "tokenId",
          "type": "uint256"
        }
      ],
      "name": "Transfer",
      "type": "event"
    },
    {
      "inputs": [
        {
          "internalType": "address",
          "name": "to",
          "type": "address"
        },
        {
          "internalType": "uint256",
          "name": "tokenId",
          "type": "uint256"
        }
      ],
      "name": "approve",
      "outputs": [],
      "stateMutability": "nonpayable",
      "type": "function"
    },
    {
      "inputs": [
        {
          "internalType": "address",
          "name": "owner",
          "type": "address"
        }
      ],
      "name": "balanceOf",
      "outputs": [
        {
          "internalType": "uint256",
          "name": "",
          "type": "uint256"
        }
      ],
      "stateMutability": "view",
      "type": "function"
    },
    {
      "inputs": [
        {
          "internalType": "uint256",
          "name": "tokenId",
          "type": "uint256"
        }
      ],
      "name": "claim",
      "outputs": [],
      "stateMutability": "nonpayable",
      "type": "function"
    },
    {
      "inputs": [
        {
          "internalType": "uint256",
          "name": "tokenId",
          "type": "uint256"
        }
      ],
      "name": "getApproved",
      "outputs": [
        {
          "internalType": "address",
          "name": "",
          "type": "address"
        }
      ],
      "stateMutability": "view",
      "type": "function"
    },
    {
      "inputs": [
        {
          "internalType": "uint256",
          "name": "tokenId",
          "type": "uint256"
        }
      ],
      "name": "getBackend",
      "outputs": [
        {
          "internalType": "string",
          "name": "",
          "type": "string"
        }
      ],
      "stateMutability": "view",
      "type": "function"
    },
    {
      "inputs": [
        {
          "internalType": "uint256",
          "name": "tokenId",
          "type": "uint256"
        }
      ],
      "name": "getCloud",
      "outputs": [
        {
          "internalType": "string",
          "name": "",
          "type": "string"
        }
      ],
      "stateMutability": "view",
      "type": "function"
    },
    {
      "inputs": [
        {
          "internalType": "uint256",
          "name": "tokenId",
          "type": "uint256"
        }
      ],
      "name": "getDatabase",
      "outputs": [
        {
          "internalType": "string",
          "name": "",
          "type": "string"
        }
      ],
      "stateMutability": "view",
      "type": "function"
    },
    {
      "inputs": [
        {
          "internalType": "uint256",
          "name": "tokenId",
          "type": "uint256"
        }
      ],
      "name": "getFrontend",
      "outputs": [
        {
          "internalType": "string",
          "name": "",
          "type": "string"
        }
      ],
      "stateMutability": "view",
      "type": "function"
    },
    {
      "inputs": [
        {
          "internalType": "uint256",
          "name": "tokenId",
          "type": "uint256"
        }
      ],
      "name": "getState",
      "outputs": [
        {
          "internalType": "string",
          "name": "",
          "type": "string"
        }
      ],
      "stateMutability": "view",
      "type": "function"
    },
    {
      "inputs": [
        {
          "internalType": "uint256",
          "name": "tokenId",
          "type": "uint256"
        }
      ],
      "name": "getTransport",
      "outputs": [
        {
          "internalType": "string",
          "name": "",
          "type": "string"
        }
      ],
      "stateMutability": "view",
      "type": "function"
    },
    {
      "inputs": [
        {
          "internalType": "uint256",
          "name": "tokenId",
          "type": "uint256"
        }
      ],
      "name": "getUI",
      "outputs": [
        {
          "internalType": "string",
          "name": "",
          "type": "string"
        }
      ],
      "stateMutability": "view",
      "type": "function"
    },
    {
      "inputs": [
        {
          "internalType": "address",
          "name": "owner",
          "type": "address"
        },
        {
          "internalType": "address",
          "name": "operator",
          "type": "address"
        }
      ],
      "name": "isApprovedForAll",
      "outputs": [
        {
          "internalType": "bool",
          "name": "",
          "type": "bool"
        }
      ],
      "stateMutability": "view",
      "type": "function"
    },
    {
      "inputs": [
        {
          "internalType": "uint256",
          "name": "tokenId",
          "type": "uint256"
        }
      ],
      "name": "itemNames",
      "outputs": [
        {
          "components": [
            {
              "internalType": "string",
              "name": "cloud",
              "type": "string"
            },
            {
              "internalType": "string",
              "name": "backend",
              "type": "string"
            },
            {
              "internalType": "string",
              "name": "database",
              "type": "string"
            },
            {
              "internalType": "string",
              "name": "transport",
              "type": "string"
            },
            {
              "internalType": "string",
              "name": "frontend",
              "type": "string"
            },
            {
              "internalType": "string",
              "name": "ui",
              "type": "string"
            },
            {
              "internalType": "string",
              "name": "state",
              "type": "string"
            }
          ],
          "internalType": "struct TechStack.Stack",
          "name": "",
          "type": "tuple"
        }
      ],
      "stateMutability": "view",
      "type": "function"
    },
    {
      "inputs": [],
      "name": "name",
      "outputs": [
        {
          "internalType": "string",
          "name": "",
          "type": "string"
        }
      ],
      "stateMutability": "view",
      "type": "function"
    },
    {
      "inputs": [],
      "name": "owner",
      "outputs": [
        {
          "internalType": "address",
          "name": "",
          "type": "address"
        }
      ],
      "stateMutability": "view",
      "type": "function"
    },
    {
      "inputs": [
        {
          "internalType": "uint256",
          "name": "tokenId",
          "type": "uint256"
        }
      ],
      "name": "ownerClaim",
      "outputs": [],
      "stateMutability": "nonpayable",
      "type": "function"
    },
    {
      "inputs": [
        {
          "internalType": "uint256",
          "name": "tokenId",
          "type": "uint256"
        }
      ],
      "name": "ownerOf",
      "outputs": [
        {
          "internalType": "address",
          "name": "",
          "type": "address"
        }
      ],
      "stateMutability": "view",
      "type": "function"
    },
    {
      "inputs": [],
      "name": "renounceOwnership",
      "outputs": [],
      "stateMutability": "nonpayable",
      "type": "function"
    },
    {
      "inputs": [
        {
          "internalType": "address",
          "name": "from",
          "type": "address"
        },
        {
          "internalType": "address",
          "name": "to",
          "type": "address"
        },
        {
          "internalType": "uint256",
          "name": "tokenId",
          "type": "uint256"
        }
      ],
      "name": "safeTransferFrom",
      "outputs": [],
      "stateMutability": "nonpayable",
      "type": "function"
    },
    {
      "inputs": [
        {
          "internalType": "address",
          "name": "from",
          "type": "address"
        },
        {
          "internalType": "address",
          "name": "to",
          "type": "address"
        },
        {
          "internalType": "uint256",
          "name": "tokenId",
          "type": "uint256"
        },
        {
          "internalType": "bytes",
          "name": "_data",
          "type": "bytes"
        }
      ],
      "name": "safeTransferFrom",
      "outputs": [],
      "stateMutability": "nonpayable",
      "type": "function"
    },
    {
      "inputs": [
        {
          "internalType": "address",
          "name": "operator",
          "type": "address"
        },
        {
          "internalType": "bool",
          "name": "approved",
          "type": "bool"
        }
      ],
      "name": "setApprovalForAll",
      "outputs": [],
      "stateMutability": "nonpayable",
      "type": "function"
    },
    {
      "inputs": [
        {
          "internalType": "bytes4",
          "name": "interfaceId",
          "type": "bytes4"
        }
      ],
      "name": "supportsInterface",
      "outputs": [
        {
          "internalType": "bool",
          "name": "",
          "type": "bool"
        }
      ],
      "stateMutability": "view",
      "type": "function"
    },
    {
      "inputs": [],
      "name": "symbol",
      "outputs": [
        {
          "internalType": "string",
          "name": "",
          "type": "string"
        }
      ],
      "stateMutability": "view",
      "type": "function"
    },
    {
      "inputs": [
        {
          "internalType": "uint256",
          "name": "index",
          "type": "uint256"
        }
      ],
      "name": "tokenByIndex",
      "outputs": [
        {
          "internalType": "uint256",
          "name": "",
          "type": "uint256"
        }
      ],
      "stateMutability": "view",
      "type": "function"
    },
    {
      "inputs": [
        {
          "internalType": "address",
          "name": "owner",
          "type": "address"
        },
        {
          "internalType": "uint256",
          "name": "index",
          "type": "uint256"
        }
      ],
      "name": "tokenOfOwnerByIndex",
      "outputs": [
        {
          "internalType": "uint256",
          "name": "",
          "type": "uint256"
        }
      ],
      "stateMutability": "view",
      "type": "function"
    },
    {
      "inputs": [
        {
          "internalType": "uint256",
          "name": "tokenId",
          "type": "uint256"
        }
      ],
      "name": "tokenURI",
      "outputs": [
        {
          "internalType": "string",
          "name": "",
          "type": "string"
        }
      ],
      "stateMutability": "view",
      "type": "function"
    },
    {
      "inputs": [],
      "name": "totalSupply",
      "outputs": [
        {
          "internalType": "uint256",
          "name": "",
          "type": "uint256"
        }
      ],
      "stateMutability": "view",
      "type": "function"
    },
    {
      "inputs": [
        {
          "internalType": "address",
          "name": "from",
          "type": "address"
        },
        {
          "internalType": "address",
          "name": "to",
          "type": "address"
        },
        {
          "internalType": "uint256",
          "name": "tokenId",
          "type": "uint256"
        }
      ],
      "name": "transferFrom",
      "outputs": [],
      "stateMutability": "nonpayable",
      "type": "function"
    },
    {
      "inputs": [
        {
          "internalType": "address",
          "name": "newOwner",
          "type": "address"
        }
      ],
      "name": "transferOwnership",
      "outputs": [],
      "stateMutability": "nonpayable",
      "type": "function"
    }
  ],
  "address": "0x23eDC2088793e9D787d9EbCe3249a8e97BBb39a7",
  "args": [],
  "bytecode": "0x60806040526040518061014001604052806040518060400160405280600381526020017f415753000000000000000000000000000000000000000000000000000000000081525081526020016040518060400160405280600581526020017f417a75726500000000000000000000000000000000000000000000000000000081525081526020016040518060400160405280601581526020017f476f6f676c6520436c6f756420506c6174666f726d000000000000000000000081525081526020016040518060400160405280600c81526020017f4469676974616c4f6365616e000000000000000000000000000000000000000081525081526020016040518060400160405280600781526020017f476f44616464790000000000000000000000000000000000000000000000000081525081526020016040518060400160405280600681526020017f4c696e6f6465000000000000000000000000000000000000000000000000000081525081526020016040518060400160405280600981526020017f49424d20436c6f7564000000000000000000000000000000000000000000000081525081526020016040518060400160405280600d81526020017f416c696261626120436c6f75640000000000000000000000000000000000000081525081526020016040518060400160405280601b81526020017f52617370626572727920506920696e20796f7572206f6666696365000000000081525081526020016040518060400160405280601581526020017f53657276657220696e20796f7572206761726167650000000000000000000000815250815250600c90600a6200026e92919062001314565b50604051806101c001604052806040518060400160405280600781526020017f4e6f64652e6a730000000000000000000000000000000000000000000000000081525081526020016040518060400160405280600781526020017f457870726573730000000000000000000000000000000000000000000000000081525081526020016040518060400160405280600281526020017f476f00000000000000000000000000000000000000000000000000000000000081525081526020016040518060400160405280600481526020017f527573740000000000000000000000000000000000000000000000000000000081525081526020016040518060400160405280600381526020017f504850000000000000000000000000000000000000000000000000000000000081525081526020016040518060400160405280600781526020017f4c61726176656c0000000000000000000000000000000000000000000000000081525081526020016040518060400160405280600681526020017f507974686f6e000000000000000000000000000000000000000000000000000081525081526020016040518060400160405280600681526020017f446a616e676f000000000000000000000000000000000000000000000000000081525081526020016040518060400160405280600481526020017f4a6176610000000000000000000000000000000000000000000000000000000081525081526020016040518060400160405280600281526020017f432300000000000000000000000000000000000000000000000000000000000081525081526020016040518060400160405280600481526020017f2e4e45540000000000000000000000000000000000000000000000000000000081525081526020016040518060400160405280600481526020017f527562790000000000000000000000000000000000000000000000000000000081525081526020016040518060400160405280600d81526020017f52756279206f6e205261696c7300000000000000000000000000000000000000815250815260200160405180606001604052806027815260200162006a4c60279139815250600d90600e620005a99291906200137b565b506040518061016001604052806040518060400160405280600a81526020017f506f737467726553514c0000000000000000000000000000000000000000000081525081526020016040518060400160405280600581526020017f4d7953514c00000000000000000000000000000000000000000000000000000081525081526020016040518060400160405280600781526020017f4d6172696144420000000000000000000000000000000000000000000000000081525081526020016040518060400160405280600781526020017f4d6f6e676f44420000000000000000000000000000000000000000000000000081525081526020016040518060400160405280600581526020017f526564697300000000000000000000000000000000000000000000000000000081525081526020016040518060400160405280600981526020017f496e2d6d656d6f7279000000000000000000000000000000000000000000000081525081526020016040518060400160405280600681526020017f53514c697465000000000000000000000000000000000000000000000000000081525081526020016040518060400160405280600881526020017f4669726562617365000000000000000000000000000000000000000000000000815250815260200160405180606001604052806029815260200162006a736029913981526020016040518060400160405280601281526020017f476f6f676c65205370726561647368656574000000000000000000000000000081525081526020016040518060400160405280601f81526020017f4d6963726f736f66742053514c2053657276657220456e746572707269736500815250815250600e90600b62000833929190620013e2565b506040518061010001604052806040518060400160405280600781526020017f4772617068514c0000000000000000000000000000000000000000000000000081525081526020016040518060400160405280600481526020017f524553540000000000000000000000000000000000000000000000000000000081525081526020016040518060400160405280600481526020017f475250430000000000000000000000000000000000000000000000000000000081525081526020016040518060400160405280600681526020017f46616c636f72000000000000000000000000000000000000000000000000000081525081526020016040518060400160405280600881526020017f4a534f4e2d52504300000000000000000000000000000000000000000000000081525081526020016040518060400160405280600481526020017f534f41500000000000000000000000000000000000000000000000000000000081525081526020016040518060400160405280601581526020017f53514c20737472696e6773206f7665722048545450000000000000000000000081525081526020016040518060400160405280601981526020017f556e656e63727970746564204854545020726571756573747300000000000000815250815250600f90600862000a2892919062001449565b506040518061014001604052806040518060400160405280600a81526020017f547970655363726970740000000000000000000000000000000000000000000081525081526020016040518060400160405280600a81526020017f547970655363726970740000000000000000000000000000000000000000000081525081526020016040518060400160405280600a81526020017f547970655363726970740000000000000000000000000000000000000000000081525081526020016040518060400160405280600a81526020017f547970655363726970740000000000000000000000000000000000000000000081525081526020016040518060400160405280600a81526020017f4a6176615363726970740000000000000000000000000000000000000000000081525081526020016040518060400160405280600a81526020017f4a6176615363726970740000000000000000000000000000000000000000000081525081526020016040518060400160405280600a81526020017f4a6176615363726970740000000000000000000000000000000000000000000081525081526020016040518060400160405280600a81526020017f4a6176615363726970740000000000000000000000000000000000000000000081525081526020016040518060400160405280600c81526020017f436f66666565536372697074000000000000000000000000000000000000000081525081526020016040518060400160405280601581526020017f5275737420636f6d70696c656420746f205741534d0000000000000000000000815250815250601090600a62000c9392919062001314565b506040518061016001604052806040518060400160405280600781526020017f4e6578742e6a730000000000000000000000000000000000000000000000000081525081526020016040518060400160405280600581526020017f526561637400000000000000000000000000000000000000000000000000000081525081526020016040518060400160405280600381526020017f567565000000000000000000000000000000000000000000000000000000000081525081526020016040518060400160405280600681526020017f5376656c7465000000000000000000000000000000000000000000000000000081525081526020016040518060400160405280600881526020017f456d6265722e6a7300000000000000000000000000000000000000000000000081525081526020016040518060400160405280600681526020017f6a5175657279000000000000000000000000000000000000000000000000000081525081526020016040518060400160405280600781526020017f416e67756c61720000000000000000000000000000000000000000000000000081525081526020016040518060400160405280601081526020017f416e67756c61724a5320312e322e33320000000000000000000000000000000081525081526020016040518060400160405280600b81526020017f56616e696c6c6120444f4d00000000000000000000000000000000000000000081525081526020016040518060400160405280600481526020017f48544d4c0000000000000000000000000000000000000000000000000000000081525081526020016040518060400160405280600d81526020017f576562436f6d706f6e656e747300000000000000000000000000000000000000815250815250601190600b62000f39929190620013e2565b506040518061012001604052806040518060400160405280600b81526020017f4261636b626f6e652e6a7300000000000000000000000000000000000000000081525081526020016040518060400160405280600681526020017f41706f6c6c6f000000000000000000000000000000000000000000000000000081525081526020016040518060400160405280600581526020017f52656c617900000000000000000000000000000000000000000000000000000081525081526020016040518060400160405280600481526020017f7572716c0000000000000000000000000000000000000000000000000000000081525081526020016040518060400160405280600b81526020017f526561637420517565727900000000000000000000000000000000000000000081525081526020016040518060400160405280600581526020017f526564757800000000000000000000000000000000000000000000000000000081525081526020016040518060400160405280600481526020017f466c75780000000000000000000000000000000000000000000000000000000081525081526020016040518060400160405280600481526020017f4d6f62580000000000000000000000000000000000000000000000000000000081525081526020016040518060400160405280600681526020017f5853746174650000000000000000000000000000000000000000000000000000815250815250601290600962001169929190620014b0565b503480156200117757600080fd5b506040518060400160405280600981526020017f54656368537461636b00000000000000000000000000000000000000000000008152506040518060400160405280600581526020017f535441434b0000000000000000000000000000000000000000000000000000008152508160009080519060200190620011fc92919062001517565b5080600190805190602001906200121592919062001517565b5050506001600a8190555062001240620012346200124660201b60201c565b6200124e60201b60201c565b6200169a565b600033905090565b6000600b60009054906101000a900473ffffffffffffffffffffffffffffffffffffffff16905081600b60006101000a81548173ffffffffffffffffffffffffffffffffffffffff021916908373ffffffffffffffffffffffffffffffffffffffff1602179055508173ffffffffffffffffffffffffffffffffffffffff168173ffffffffffffffffffffffffffffffffffffffff167f8be0079c531659141344cd1fd0a4f28419497f9722a3daafe3b4186f6b6457e060405160405180910390a35050565b82805482825590600052602060002090810192821562001368579160200282015b82811115620013675782518290805190602001906200135692919062001517565b509160200191906001019062001335565b5b509050620013779190620015a8565b5090565b828054828255906000526020600020908101928215620013cf579160200282015b82811115620013ce578251829080519060200190620013bd92919062001517565b50916020019190600101906200139c565b5b509050620013de9190620015a8565b5090565b82805482825590600052602060002090810192821562001436579160200282015b82811115620014355782518290805190602001906200142492919062001517565b509160200191906001019062001403565b5b509050620014459190620015a8565b5090565b8280548282559060005260206000209081019282156200149d579160200282015b828111156200149c5782518290805190602001906200148b92919062001517565b50916020019190600101906200146a565b5b509050620014ac9190620015a8565b5090565b82805482825590600052602060002090810192821562001504579160200282015b8281111562001503578251829080519060200190620014f292919062001517565b5091602001919060010190620014d1565b5b509050620015139190620015a8565b5090565b828054620015259062001635565b90600052602060002090601f01602090048101928262001549576000855562001595565b82601f106200156457805160ff191683800117855562001595565b8280016001018555821562001595579182015b828111156200159457825182559160200191906001019062001577565b5b509050620015a49190620015d0565b5090565b5b80821115620015cc5760008181620015c29190620015ef565b50600101620015a9565b5090565b5b80821115620015eb576000816000905550600101620015d1565b5090565b508054620015fd9062001635565b6000825580601f1062001611575062001632565b601f016020900490600052602060002090810190620016319190620015d0565b5b50565b600060028204905060018216806200164e57607f821691505b602082108114156200166557620016646200166b565b5b50919050565b7f4e487b7100000000000000000000000000000000000000000000000000000000600052602260045260246000fd5b6153a280620016aa6000396000f3fe608060405234801561001057600080fd5b50600436106101cf5760003560e01c80636352211e11610104578063b88d4fde116100a2578063c87b56dd11610071578063c87b56dd1461058a578063e985e9c5146105ba578063f2fde38b146105ea578063f6afad4714610606576101cf565b8063b88d4fde146104de578063bc5de5e0146104fa578063bd91bba01461052a578063c34a5b981461055a576101cf565b806389d64481116100de57806389d64481146104565780638da5cb5b1461048657806395d89b41146104a4578063a22cb465146104c2576101cf565b80636352211e146103ec57806370a082311461041c578063715018a61461044c576101cf565b80633438439411610171578063434f48c41161014b578063434f48c41461034057806344c9af281461035c57806346e177711461038c5780634f6ccce7146103bc576101cf565b806334384394146102d8578063379607f51461030857806342842e0e14610324576101cf565b8063095ea7b3116101ad578063095ea7b31461025257806318160ddd1461026e57806323b872dd1461028c5780632f745c59146102a8576101cf565b806301ffc9a7146101d457806306fdde0314610204578063081812fc14610222575b600080fd5b6101ee60048036038101906101e99190613b4b565b610636565b6040516101fb9190614242565b60405180910390f35b61020c6106b0565b604051610219919061425d565b60405180910390f35b61023c60048036038101906102379190613b9d565b610742565b60405161024991906141db565b60405180910390f35b61026c60048036038101906102679190613b0f565b6107c7565b005b6102766108df565b6040516102839190614501565b60405180910390f35b6102a660048036038101906102a19190613a09565b6108ec565b005b6102c260048036038101906102bd9190613b0f565b61094c565b6040516102cf9190614501565b60405180910390f35b6102f260048036038101906102ed9190613b9d565b6109f1565b6040516102ff919061425d565b60405180910390f35b610322600480360381019061031d9190613b9d565b610b0b565b005b61033e60048036038101906103399190613a09565b610bc5565b005b61035a60048036038101906103559190613b9d565b610be5565b005b61037660048036038101906103719190613b9d565b610d1c565b604051610383919061425d565b60405180910390f35b6103a660048036038101906103a19190613b9d565b610e36565b6040516103b3919061425d565b60405180910390f35b6103d660048036038101906103d19190613b9d565b610f50565b6040516103e39190614501565b60405180910390f35b61040660048036038101906104019190613b9d565b610fe7565b60405161041391906141db565b60405180910390f35b610436600480360381019061043191906139a4565b611099565b6040516104439190614501565b60405180910390f35b610454611151565b005b610470600480360381019061046b9190613b9d565b6111d9565b60405161047d919061425d565b60405180910390f35b61048e6112f3565b60405161049b91906141db565b60405180910390f35b6104ac61131d565b6040516104b9919061425d565b60405180910390f35b6104dc60048036038101906104d79190613ad3565b6113af565b005b6104f860048036038101906104f39190613a58565b611530565b005b610514600480360381019061050f9190613b9d565b611592565b604051610521919061425d565b60405180910390f35b610544600480360381019061053f9190613b9d565b6116ac565b604051610551919061425d565b60405180910390f35b610574600480360381019061056f9190613b9d565b6117c6565b60405161058191906144df565b60405180910390f35b6105a4600480360381019061059f9190613b9d565b611840565b6040516105b1919061425d565b60405180910390f35b6105d460048036038101906105cf91906139cd565b61223e565b6040516105e19190614242565b60405180910390f35b61060460048036038101906105ff91906139a4565b6122d2565b005b610620600480360381019061061b9190613b9d565b6123ca565b60405161062d919061425d565b60405180910390f35b60007f780e9d63000000000000000000000000000000000000000000000000000000007bffffffffffffffffffffffffffffffffffffffffffffffffffffffff1916827bffffffffffffffffffffffffffffffffffffffffffffffffffffffff191614806106a957506106a8826124e4565b5b9050919050565b6060600080546106bf90614791565b80601f01602080910402602001604051908101604052809291908181526020018280546106eb90614791565b80156107385780601f1061070d57610100808354040283529160200191610738565b820191906000526020600020905b81548152906001019060200180831161071b57829003601f168201915b5050505050905090565b600061074d826125c6565b61078c576040517f08c379a0000000000000000000000000000000000000000000000000000000008152600401610783906143df565b60405180910390fd5b6004600083815260200190815260200160002060009054906101000a900473ffffffffffffffffffffffffffffffffffffffff169050919050565b60006107d282610fe7565b90508073ffffffffffffffffffffffffffffffffffffffff168373ffffffffffffffffffffffffffffffffffffffff161415610843576040517f08c379a000000000000000000000000000000000000000000000000000000000815260040161083a9061445f565b60405180910390fd5b8073ffffffffffffffffffffffffffffffffffffffff16610862612632565b73ffffffffffffffffffffffffffffffffffffffff16148061089157506108908161088b612632565b61223e565b5b6108d0576040517f08c379a00000000000000000000000000000000000000000000000000000000081526004016108c79061435f565b60405180910390fd5b6108da838361263a565b505050565b6000600880549050905090565b6108fd6108f7612632565b826126f3565b61093c576040517f08c379a00000000000000000000000000000000000000000000000000000000081526004016109339061447f565b60405180910390fd5b6109478383836127d1565b505050565b600061095783611099565b8210610998576040517f08c379a000000000000000000000000000000000000000000000000000000000815260040161098f9061427f565b60405180910390fd5b600660008473ffffffffffffffffffffffffffffffffffffffff1673ffffffffffffffffffffffffffffffffffffffff168152602001908152602001600020600083815260200190815260200160002054905092915050565b6060610b04826040518060400160405280600881526020017f46524f4e54454e440000000000000000000000000000000000000000000000008152506010805480602002602001604051908101604052809291908181526020016000905b82821015610afb578382906000526020600020018054610a6e90614791565b80601f0160208091040260200160405190810160405280929190818152602001828054610a9a90614791565b8015610ae75780601f10610abc57610100808354040283529160200191610ae7565b820191906000526020600020905b815481529060010190602001808311610aca57829003601f168201915b505050505081526020019060010190610a4f565b50505050612a2d565b9050919050565b6002600a541415610b51576040517f08c379a0000000000000000000000000000000000000000000000000000000008152600401610b48906144bf565b60405180910390fd5b6002600a81905550600081118015610b6a5750611e6281105b610ba9576040517f08c379a0000000000000000000000000000000000000000000000000000000008152600401610ba09061441f565b60405180910390fd5b610bba610bb4612632565b82612ac2565b6001600a8190555050565b610be083838360405180602001604052806000815250611530565b505050565b6002600a541415610c2b576040517f08c379a0000000000000000000000000000000000000000000000000000000008152600401610c22906144bf565b60405180910390fd5b6002600a81905550610c3b612632565b73ffffffffffffffffffffffffffffffffffffffff16610c596112f3565b73ffffffffffffffffffffffffffffffffffffffff1614610caf576040517f08c379a0000000000000000000000000000000000000000000000000000000008152600401610ca6906143ff565b60405180910390fd5b611e6181118015610cc15750611f4181105b610d00576040517f08c379a0000000000000000000000000000000000000000000000000000000008152600401610cf79061441f565b60405180910390fd5b610d11610d0b6112f3565b82612ac2565b6001600a8190555050565b6060610e2f826040518060400160405280600581526020017f53544154450000000000000000000000000000000000000000000000000000008152506012805480602002602001604051908101604052809291908181526020016000905b82821015610e26578382906000526020600020018054610d9990614791565b80601f0160208091040260200160405190810160405280929190818152602001828054610dc590614791565b8015610e125780601f10610de757610100808354040283529160200191610e12565b820191906000526020600020905b815481529060010190602001808311610df557829003601f168201915b505050505081526020019060010190610d7a565b50505050612a2d565b9050919050565b6060610f49826040518060400160405280600781526020017f4241434b454e4400000000000000000000000000000000000000000000000000815250600d805480602002602001604051908101604052809291908181526020016000905b82821015610f40578382906000526020600020018054610eb390614791565b80601f0160208091040260200160405190810160405280929190818152602001828054610edf90614791565b8015610f2c5780601f10610f0157610100808354040283529160200191610f2c565b820191906000526020600020905b815481529060010190602001808311610f0f57829003601f168201915b505050505081526020019060010190610e94565b50505050612a2d565b9050919050565b6000610f5a6108df565b8210610f9b576040517f08c379a0000000000000000000000000000000000000000000000000000000008152600401610f929061449f565b60405180910390fd5b60088281548110610fd5577f4e487b7100000000000000000000000000000000000000000000000000000000600052603260045260246000fd5b90600052602060002001549050919050565b6000806002600084815260200190815260200160002060009054906101000a900473ffffffffffffffffffffffffffffffffffffffff169050600073ffffffffffffffffffffffffffffffffffffffff168173ffffffffffffffffffffffffffffffffffffffff161415611090576040517f08c379a00000000000000000000000000000000000000000000000000000000081526004016110879061439f565b60405180910390fd5b80915050919050565b60008073ffffffffffffffffffffffffffffffffffffffff168273ffffffffffffffffffffffffffffffffffffffff16141561110a576040517f08c379a00000000000000000000000000000000000000000000000000000000081526004016111019061437f565b60405180910390fd5b600360008373ffffffffffffffffffffffffffffffffffffffff1673ffffffffffffffffffffffffffffffffffffffff168152602001908152602001600020549050919050565b611159612632565b73ffffffffffffffffffffffffffffffffffffffff166111776112f3565b73ffffffffffffffffffffffffffffffffffffffff16146111cd576040517f08c379a00000000000000000000000000000000000000000000000000000000081526004016111c4906143ff565b60405180910390fd5b6111d76000612ae0565b565b60606112ec826040518060400160405280600281526020017f55490000000000000000000000000000000000000000000000000000000000008152506011805480602002602001604051908101604052809291908181526020016000905b828210156112e357838290600052602060002001805461125690614791565b80601f016020809104026020016040519081016040528092919081815260200182805461128290614791565b80156112cf5780601f106112a4576101008083540402835291602001916112cf565b820191906000526020600020905b8154815290600101906020018083116112b257829003601f168201915b505050505081526020019060010190611237565b50505050612a2d565b9050919050565b6000600b60009054906101000a900473ffffffffffffffffffffffffffffffffffffffff16905090565b60606001805461132c90614791565b80601f016020809104026020016040519081016040528092919081815260200182805461135890614791565b80156113a55780601f1061137a576101008083540402835291602001916113a5565b820191906000526020600020905b81548152906001019060200180831161138857829003601f168201915b5050505050905090565b6113b7612632565b73ffffffffffffffffffffffffffffffffffffffff168273ffffffffffffffffffffffffffffffffffffffff161415611425576040517f08c379a000000000000000000000000000000000000000000000000000000000815260040161141c9061431f565b60405180910390fd5b8060056000611432612632565b73ffffffffffffffffffffffffffffffffffffffff1673ffffffffffffffffffffffffffffffffffffffff16815260200190815260200160002060008473ffffffffffffffffffffffffffffffffffffffff1673ffffffffffffffffffffffffffffffffffffffff16815260200190815260200160002060006101000a81548160ff0219169083151502179055508173ffffffffffffffffffffffffffffffffffffffff166114df612632565b73ffffffffffffffffffffffffffffffffffffffff167f17307eab39ab6107e8899845ad3d59bd9653f200f220920489ca2b5937696c31836040516115249190614242565b60405180910390a35050565b61154161153b612632565b836126f3565b611580576040517f08c379a00000000000000000000000000000000000000000000000000000000081526004016115779061447f565b60405180910390fd5b61158c84848484612ba6565b50505050565b60606116a5826040518060400160405280600981526020017f5452414e53504f52540000000000000000000000000000000000000000000000815250600f805480602002602001604051908101604052809291908181526020016000905b8282101561169c57838290600052602060002001805461160f90614791565b80601f016020809104026020016040519081016040528092919081815260200182805461163b90614791565b80156116885780601f1061165d57610100808354040283529160200191611688565b820191906000526020600020905b81548152906001019060200180831161166b57829003601f168201915b5050505050815260200190600101906115f0565b50505050612a2d565b9050919050565b60606117bf826040518060400160405280600581526020017f434c4f5544000000000000000000000000000000000000000000000000000000815250600c805480602002602001604051908101604052809291908181526020016000905b828210156117b657838290600052602060002001805461172990614791565b80601f016020809104026020016040519081016040528092919081815260200182805461175590614791565b80156117a25780601f10611777576101008083540402835291602001916117a2565b820191906000526020600020905b81548152906001019060200180831161178557829003601f168201915b50505050508152602001906001019061170a565b50505050612a2d565b9050919050565b6117ce61386e565b6040518060e001604052806117e2846116ac565b81526020016117f084610e36565b81526020016117fe846123ca565b815260200161180c84611592565b815260200161181a846109f1565b8152602001611828846111d9565b815260200161183684610d1c565b8152509050919050565b606061184a6138ab565b604051806101a0016040528061016a815260200161514f61016a9139816000601181106118a0577f4e487b7100000000000000000000000000000000000000000000000000000000600052603260045260246000fd5b60200201819052506118b1836116ac565b816001601181106118eb577f4e487b7100000000000000000000000000000000000000000000000000000000600052603260045260246000fd5b60200201819052506040518060800160405280605a8152602001615313605a913981600260118110611946577f4e487b7100000000000000000000000000000000000000000000000000000000600052603260045260246000fd5b602002018190525061195783610e36565b81600360118110611991577f4e487b7100000000000000000000000000000000000000000000000000000000600052603260045260246000fd5b60200201819052506040518060800160405280605a8152602001615001605a9139816004601181106119ec577f4e487b7100000000000000000000000000000000000000000000000000000000600052603260045260246000fd5b60200201819052506119fd836123ca565b81600560118110611a37577f4e487b7100000000000000000000000000000000000000000000000000000000600052603260045260246000fd5b60200201819052506040518060800160405280605a81526020016150b5605a913981600660118110611a92577f4e487b7100000000000000000000000000000000000000000000000000000000600052603260045260246000fd5b6020020181905250611aa383611592565b81600760118110611add577f4e487b7100000000000000000000000000000000000000000000000000000000600052603260045260246000fd5b60200201819052506040518060800160405280605a8152602001614fa7605a913981600860118110611b38577f4e487b7100000000000000000000000000000000000000000000000000000000600052603260045260246000fd5b6020020181905250611b49836109f1565b81600960118110611b83577f4e487b7100000000000000000000000000000000000000000000000000000000600052603260045260246000fd5b60200201819052506040518060800160405280605a815260200161505b605a913981600a60118110611bde577f4e487b7100000000000000000000000000000000000000000000000000000000600052603260045260246000fd5b6020020181905250611bef836111d9565b81600b60118110611c29577f4e487b7100000000000000000000000000000000000000000000000000000000600052603260045260246000fd5b60200201819052506040518060800160405280605a81526020016152b9605a913981600e60118110611c84577f4e487b7100000000000000000000000000000000000000000000000000000000600052603260045260246000fd5b6020020181905250611c9583610d1c565b81600f60118110611ccf577f4e487b7100000000000000000000000000000000000000000000000000000000600052603260045260246000fd5b60200201819052506040518060400160405280600d81526020017f3c2f746578743e3c2f7376673e0000000000000000000000000000000000000081525081601060118110611d47577f4e487b7100000000000000000000000000000000000000000000000000000000600052603260045260246000fd5b6020020181905250600081600060118110611d8b577f4e487b7100000000000000000000000000000000000000000000000000000000600052603260045260246000fd5b602002015182600160118110611dca577f4e487b7100000000000000000000000000000000000000000000000000000000600052603260045260246000fd5b602002015183600260118110611e09577f4e487b7100000000000000000000000000000000000000000000000000000000600052603260045260246000fd5b602002015184600360118110611e48577f4e487b7100000000000000000000000000000000000000000000000000000000600052603260045260246000fd5b602002015185600460118110611e87577f4e487b7100000000000000000000000000000000000000000000000000000000600052603260045260246000fd5b602002015186600560118110611ec6577f4e487b7100000000000000000000000000000000000000000000000000000000600052603260045260246000fd5b602002015187600660118110611f05577f4e487b7100000000000000000000000000000000000000000000000000000000600052603260045260246000fd5b602002015188600760118110611f44577f4e487b7100000000000000000000000000000000000000000000000000000000600052603260045260246000fd5b602002015189600860118110611f83577f4e487b7100000000000000000000000000000000000000000000000000000000600052603260045260246000fd5b6020020151604051602001611fa0999897969594939291906140f5565b60405160208183030381529060405290508082600960118110611fec577f4e487b7100000000000000000000000000000000000000000000000000000000600052603260045260246000fd5b602002015183600a6011811061202b577f4e487b7100000000000000000000000000000000000000000000000000000000600052603260045260246000fd5b602002015184600b6011811061206a577f4e487b7100000000000000000000000000000000000000000000000000000000600052603260045260246000fd5b602002015185600c601181106120a9577f4e487b7100000000000000000000000000000000000000000000000000000000600052603260045260246000fd5b602002015186600d601181106120e8577f4e487b7100000000000000000000000000000000000000000000000000000000600052603260045260246000fd5b602002015187600e60118110612127577f4e487b7100000000000000000000000000000000000000000000000000000000600052603260045260246000fd5b602002015188600f60118110612166577f4e487b7100000000000000000000000000000000000000000000000000000000600052603260045260246000fd5b6020020151896010601181106121a5577f4e487b7100000000000000000000000000000000000000000000000000000000600052603260045260246000fd5b60200201516040516020016121c2999897969594939291906140f5565b6040516020818303038152906040529050600061220f6121e186612c02565b6121ea84612daf565b6040516020016121fb929190614174565b604051602081830303815290604052612daf565b90508060405160200161222291906141b9565b6040516020818303038152906040529150819350505050919050565b6000600560008473ffffffffffffffffffffffffffffffffffffffff1673ffffffffffffffffffffffffffffffffffffffff16815260200190815260200160002060008373ffffffffffffffffffffffffffffffffffffffff1673ffffffffffffffffffffffffffffffffffffffff16815260200190815260200160002060009054906101000a900460ff16905092915050565b6122da612632565b73ffffffffffffffffffffffffffffffffffffffff166122f86112f3565b73ffffffffffffffffffffffffffffffffffffffff161461234e576040517f08c379a0000000000000000000000000000000000000000000000000000000008152600401612345906143ff565b60405180910390fd5b600073ffffffffffffffffffffffffffffffffffffffff168173ffffffffffffffffffffffffffffffffffffffff1614156123be576040517f08c379a00000000000000000000000000000000000000000000000000000000081526004016123b5906142bf565b60405180910390fd5b6123c781612ae0565b50565b60606124dd826040518060400160405280600881526020017f4441544142415345000000000000000000000000000000000000000000000000815250600e805480602002602001604051908101604052809291908181526020016000905b828210156124d457838290600052602060002001805461244790614791565b80601f016020809104026020016040519081016040528092919081815260200182805461247390614791565b80156124c05780601f10612495576101008083540402835291602001916124c0565b820191906000526020600020905b8154815290600101906020018083116124a357829003601f168201915b505050505081526020019060010190612428565b50505050612a2d565b9050919050565b60007f80ac58cd000000000000000000000000000000000000000000000000000000007bffffffffffffffffffffffffffffffffffffffffffffffffffffffff1916827bffffffffffffffffffffffffffffffffffffffffffffffffffffffff191614806125af57507f5b5e139f000000000000000000000000000000000000000000000000000000007bffffffffffffffffffffffffffffffffffffffffffffffffffffffff1916827bffffffffffffffffffffffffffffffffffffffffffffffffffffffff1916145b806125bf57506125be82612f6d565b5b9050919050565b60008073ffffffffffffffffffffffffffffffffffffffff166002600084815260200190815260200160002060009054906101000a900473ffffffffffffffffffffffffffffffffffffffff1673ffffffffffffffffffffffffffffffffffffffff1614159050919050565b600033905090565b816004600083815260200190815260200160002060006101000a81548173ffffffffffffffffffffffffffffffffffffffff021916908373ffffffffffffffffffffffffffffffffffffffff160217905550808273ffffffffffffffffffffffffffffffffffffffff166126ad83610fe7565b73ffffffffffffffffffffffffffffffffffffffff167f8c5be1e5ebec7d5bd14f71427d1e84f3dd0314c0f7b2291e5b200ac8c7c3b92560405160405180910390a45050565b60006126fe826125c6565b61273d576040517f08c379a00000000000000000000000000000000000000000000000000000000081526004016127349061433f565b60405180910390fd5b600061274883610fe7565b90508073ffffffffffffffffffffffffffffffffffffffff168473ffffffffffffffffffffffffffffffffffffffff1614806127b757508373ffffffffffffffffffffffffffffffffffffffff1661279f84610742565b73ffffffffffffffffffffffffffffffffffffffff16145b806127c857506127c7818561223e565b5b91505092915050565b8273ffffffffffffffffffffffffffffffffffffffff166127f182610fe7565b73ffffffffffffffffffffffffffffffffffffffff1614612847576040517f08c379a000000000000000000000000000000000000000000000000000000000815260040161283e9061443f565b60405180910390fd5b600073ffffffffffffffffffffffffffffffffffffffff168273ffffffffffffffffffffffffffffffffffffffff1614156128b7576040517f08c379a00000000000000000000000000000000000000000000000000000000081526004016128ae906142ff565b60405180910390fd5b6128c2838383612fd7565b6128cd60008261263a565b6001600360008573ffffffffffffffffffffffffffffffffffffffff1673ffffffffffffffffffffffffffffffffffffffff168152602001908152602001600020600082825461291d91906146a7565b925050819055506001600360008473ffffffffffffffffffffffffffffffffffffffff1673ffffffffffffffffffffffffffffffffffffffff168152602001908152602001600020600082825461297491906145c6565b92505081905550816002600083815260200190815260200160002060006101000a81548173ffffffffffffffffffffffffffffffffffffffff021916908373ffffffffffffffffffffffffffffffffffffffff160217905550808273ffffffffffffffffffffffffffffffffffffffff168473ffffffffffffffffffffffffffffffffffffffff167fddf252ad1be2c89b69c2b068fc378daa952ba7f163c4a11628f55a4df523b3ef60405160405180910390a4505050565b60606000612a6384612a3e87612c02565b604051602001612a4f9291906140d1565b6040516020818303038152906040526130eb565b9050600083845183612a75919061483d565b81518110612aac577f4e487b7100000000000000000000000000000000000000000000000000000000600052603260045260246000fd5b6020026020010151905080925050509392505050565b612adc82826040518060200160405280600081525061311e565b5050565b6000600b60009054906101000a900473ffffffffffffffffffffffffffffffffffffffff16905081600b60006101000a81548173ffffffffffffffffffffffffffffffffffffffff021916908373ffffffffffffffffffffffffffffffffffffffff1602179055508173ffffffffffffffffffffffffffffffffffffffff168173ffffffffffffffffffffffffffffffffffffffff167f8be0079c531659141344cd1fd0a4f28419497f9722a3daafe3b4186f6b6457e060405160405180910390a35050565b612bb18484846127d1565b612bbd84848484613179565b612bfc576040517f08c379a0000000000000000000000000000000000000000000000000000000008152600401612bf39061429f565b60405180910390fd5b50505050565b60606000821415612c4a576040518060400160405280600181526020017f30000000000000000000000000000000000000000000000000000000000000008152509050612daa565b600082905060005b60008214612c7c578080612c65906147f4565b915050600a82612c75919061461c565b9150612c52565b60008167ffffffffffffffff811115612cbe577f4e487b7100000000000000000000000000000000000000000000000000000000600052604160045260246000fd5b6040519080825280601f01601f191660200182016040528015612cf05781602001600182028036833780820191505090505b5090505b60008514612da357600182612d0991906146a7565b9150600a85612d18919061483d565b6030612d2491906145c6565b60f81b818381518110612d60577f4e487b7100000000000000000000000000000000000000000000000000000000600052603260045260246000fd5b60200101907effffffffffffffffffffffffffffffffffffffffffffffffffffffffffffff1916908160001a905350600a85612d9c919061461c565b9450612cf4565b8093505050505b919050565b60606000825190506000811415612dd85760405180602001604052806000815250915050612f68565b60006003600283612de991906145c6565b612df3919061461c565b6004612dff919061464d565b90506000602082612e1091906145c6565b67ffffffffffffffff811115612e4f577f4e487b7100000000000000000000000000000000000000000000000000000000600052604160045260246000fd5b6040519080825280601f01601f191660200182016040528015612e815781602001600182028036833780820191505090505b509050600060405180606001604052806040815260200161510f604091399050600181016020830160005b86811015612f255760038101905062ffffff818a015116603f8160121c168401518060081b905060ff603f83600c1c1686015116810190508060081b905060ff603f8360061c1686015116810190508060081b905060ff603f831686015116810190508060e01b90508084526004840193505050612eac565b506003860660018114612f3f5760028114612f4f57612f5a565b613d3d60f01b6002830352612f5a565b603d60f81b60018303525b508484525050819450505050505b919050565b60007f01ffc9a7000000000000000000000000000000000000000000000000000000007bffffffffffffffffffffffffffffffffffffffffffffffffffffffff1916827bffffffffffffffffffffffffffffffffffffffffffffffffffffffff1916149050919050565b612fe2838383613310565b600073ffffffffffffffffffffffffffffffffffffffff168373ffffffffffffffffffffffffffffffffffffffff1614156130255761302081613315565b613064565b8173ffffffffffffffffffffffffffffffffffffffff168373ffffffffffffffffffffffffffffffffffffffff161461306357613062838261335e565b5b5b600073ffffffffffffffffffffffffffffffffffffffff168273ffffffffffffffffffffffffffffffffffffffff1614156130a7576130a2816134cb565b6130e6565b8273ffffffffffffffffffffffffffffffffffffffff168273ffffffffffffffffffffffffffffffffffffffff16146130e5576130e4828261360e565b5b5b505050565b6000816040516020016130fe91906140ba565b6040516020818303038152906040528051906020012060001c9050919050565b613128838361368d565b6131356000848484613179565b613174576040517f08c379a000000000000000000000000000000000000000000000000000000000815260040161316b9061429f565b60405180910390fd5b505050565b600061319a8473ffffffffffffffffffffffffffffffffffffffff1661385b565b15613303578373ffffffffffffffffffffffffffffffffffffffff1663150b7a026131c3612632565b8786866040518563ffffffff1660e01b81526004016131e594939291906141f6565b602060405180830381600087803b1580156131ff57600080fd5b505af192505050801561323057506040513d601f19601f8201168201806040525081019061322d9190613b74565b60015b6132b3573d8060008114613260576040519150601f19603f3d011682016040523d82523d6000602084013e613265565b606091505b506000815114156132ab576040517f08c379a00000000000000000000000000000000000000000000000000000000081526004016132a29061429f565b60405180910390fd5b805181602001fd5b63150b7a0260e01b7bffffffffffffffffffffffffffffffffffffffffffffffffffffffff1916817bffffffffffffffffffffffffffffffffffffffffffffffffffffffff191614915050613308565b600190505b949350505050565b505050565b6008805490506009600083815260200190815260200160002081905550600881908060018154018082558091505060019003906000526020600020016000909190919091505550565b6000600161336b84611099565b61337591906146a7565b905060006007600084815260200190815260200160002054905081811461345a576000600660008673ffffffffffffffffffffffffffffffffffffffff1673ffffffffffffffffffffffffffffffffffffffff168152602001908152602001600020600084815260200190815260200160002054905080600660008773ffffffffffffffffffffffffffffffffffffffff1673ffffffffffffffffffffffffffffffffffffffff168152602001908152602001600020600084815260200190815260200160002081905550816007600083815260200190815260200160002081905550505b6007600084815260200190815260200160002060009055600660008573ffffffffffffffffffffffffffffffffffffffff1673ffffffffffffffffffffffffffffffffffffffff16815260200190815260200160002060008381526020019081526020016000206000905550505050565b600060016008805490506134df91906146a7565b9050600060096000848152602001908152602001600020549050600060088381548110613535577f4e487b7100000000000000000000000000000000000000000000000000000000600052603260045260246000fd5b90600052602060002001549050806008838154811061357d577f4e487b7100000000000000000000000000000000000000000000000000000000600052603260045260246000fd5b9060005260206000200181905550816009600083815260200190815260200160002081905550600960008581526020019081526020016000206000905560088054806135f2577f4e487b7100000000000000000000000000000000000000000000000000000000600052603160045260246000fd5b6001900381819060005260206000200160009055905550505050565b600061361983611099565b905081600660008573ffffffffffffffffffffffffffffffffffffffff1673ffffffffffffffffffffffffffffffffffffffff168152602001908152602001600020600083815260200190815260200160002081905550806007600084815260200190815260200160002081905550505050565b600073ffffffffffffffffffffffffffffffffffffffff168273ffffffffffffffffffffffffffffffffffffffff1614156136fd576040517f08c379a00000000000000000000000000000000000000000000000000000000081526004016136f4906143bf565b60405180910390fd5b613706816125c6565b15613746576040517f08c379a000000000000000000000000000000000000000000000000000000000815260040161373d906142df565b60405180910390fd5b61375260008383612fd7565b6001600360008473ffffffffffffffffffffffffffffffffffffffff1673ffffffffffffffffffffffffffffffffffffffff16815260200190815260200160002060008282546137a291906145c6565b92505081905550816002600083815260200190815260200160002060006101000a81548173ffffffffffffffffffffffffffffffffffffffff021916908373ffffffffffffffffffffffffffffffffffffffff160217905550808273ffffffffffffffffffffffffffffffffffffffff16600073ffffffffffffffffffffffffffffffffffffffff167fddf252ad1be2c89b69c2b068fc378daa952ba7f163c4a11628f55a4df523b3ef60405160405180910390a45050565b600080823b905060008111915050919050565b6040518060e00160405280606081526020016060815260200160608152602001606081526020016060815260200160608152602001606081525090565b6040518061022001604052806011905b60608152602001906001900390816138bb5790505090565b60006138e66138e184614541565b61451c565b9050828152602081018484840111156138fe57600080fd5b61390984828561474f565b509392505050565b60008135905061392081614f4a565b92915050565b60008135905061393581614f61565b92915050565b60008135905061394a81614f78565b92915050565b60008151905061395f81614f78565b92915050565b600082601f83011261397657600080fd5b81356139868482602086016138d3565b91505092915050565b60008135905061399e81614f8f565b92915050565b6000602082840312156139b657600080fd5b60006139c484828501613911565b91505092915050565b600080604083850312156139e057600080fd5b60006139ee85828601613911565b92505060206139ff85828601613911565b9150509250929050565b600080600060608486031215613a1e57600080fd5b6000613a2c86828701613911565b9350506020613a3d86828701613911565b9250506040613a4e8682870161398f565b9150509250925092565b60008060008060808587031215613a6e57600080fd5b6000613a7c87828801613911565b9450506020613a8d87828801613911565b9350506040613a9e8782880161398f565b925050606085013567ffffffffffffffff811115613abb57600080fd5b613ac787828801613965565b91505092959194509250565b60008060408385031215613ae657600080fd5b6000613af485828601613911565b9250506020613b0585828601613926565b9150509250929050565b60008060408385031215613b2257600080fd5b6000613b3085828601613911565b9250506020613b418582860161398f565b9150509250929050565b600060208284031215613b5d57600080fd5b6000613b6b8482850161393b565b91505092915050565b600060208284031215613b8657600080fd5b6000613b9484828501613950565b91505092915050565b600060208284031215613baf57600080fd5b6000613bbd8482850161398f565b91505092915050565b613bcf816146db565b82525050565b613bde816146ed565b82525050565b6000613bef82614572565b613bf98185614588565b9350613c0981856020860161475e565b613c128161492a565b840191505092915050565b6000613c288261457d565b613c328185614599565b9350613c4281856020860161475e565b613c4b8161492a565b840191505092915050565b6000613c618261457d565b613c6b81856145aa565b9350613c7b81856020860161475e565b613c848161492a565b840191505092915050565b6000613c9a8261457d565b613ca481856145bb565b9350613cb481856020860161475e565b80840191505092915050565b6000613ccd6015836145bb565b9150613cd88261493b565b601582019050919050565b6000613cf0602b836145aa565b9150613cfb82614964565b604082019050919050565b6000613d136032836145aa565b9150613d1e826149b3565b604082019050919050565b6000613d366026836145aa565b9150613d4182614a02565b604082019050919050565b6000613d59601c836145aa565b9150613d6482614a51565b602082019050919050565b6000613d7c6024836145aa565b9150613d8782614a7a565b604082019050919050565b6000613d9f6019836145aa565b9150613daa82614ac9565b602082019050919050565b6000613dc2602c836145aa565b9150613dcd82614af2565b604082019050919050565b6000613de56038836145aa565b9150613df082614b41565b604082019050919050565b6000613e08602a836145aa565b9150613e1382614b90565b604082019050919050565b6000613e2b6029836145aa565b9150613e3682614bdf565b604082019050919050565b6000613e4e6002836145bb565b9150613e5982614c2e565b600282019050919050565b6000613e716020836145aa565b9150613e7c82614c57565b602082019050919050565b6000613e94602c836145aa565b9150613e9f82614c80565b604082019050919050565b6000613eb76020836145aa565b9150613ec282614ccf565b602082019050919050565b6000613eda6010836145aa565b9150613ee582614cf8565b602082019050919050565b6000613efd6029836145aa565b9150613f0882614d21565b604082019050919050565b6000613f206021836145aa565b9150613f2b82614d70565b604082019050919050565b6000613f43601d836145bb565b9150613f4e82614dbf565b601d82019050919050565b6000613f666031836145aa565b9150613f7182614de8565b604082019050919050565b6000613f89602c836145aa565b9150613f9482614e37565b604082019050919050565b6000613fac606e836145bb565b9150613fb782614e86565b606e82019050919050565b6000613fcf601f836145aa565b9150613fda82614f21565b602082019050919050565b600060e08301600083015184820360008601526140028282613c1d565b9150506020830151848203602086015261401c8282613c1d565b915050604083015184820360408601526140368282613c1d565b915050606083015184820360608601526140508282613c1d565b9150506080830151848203608086015261406a8282613c1d565b91505060a083015184820360a08601526140848282613c1d565b91505060c083015184820360c086015261409e8282613c1d565b9150508091505092915050565b6140b481614745565b82525050565b60006140c68284613c8f565b915081905092915050565b60006140dd8285613c8f565b91506140e98284613c8f565b91508190509392505050565b6000614101828c613c8f565b915061410d828b613c8f565b9150614119828a613c8f565b91506141258289613c8f565b91506141318288613c8f565b915061413d8287613c8f565b91506141498286613c8f565b91506141558285613c8f565b91506141618284613c8f565b91508190509a9950505050505050505050565b600061417f82613cc0565b915061418b8285613c8f565b915061419682613f9f565b91506141a28284613c8f565b91506141ad82613e41565b91508190509392505050565b60006141c482613f36565b91506141d08284613c8f565b915081905092915050565b60006020820190506141f06000830184613bc6565b92915050565b600060808201905061420b6000830187613bc6565b6142186020830186613bc6565b61422560408301856140ab565b81810360608301526142378184613be4565b905095945050505050565b60006020820190506142576000830184613bd5565b92915050565b600060208201905081810360008301526142778184613c56565b905092915050565b6000602082019050818103600083015261429881613ce3565b9050919050565b600060208201905081810360008301526142b881613d06565b9050919050565b600060208201905081810360008301526142d881613d29565b9050919050565b600060208201905081810360008301526142f881613d4c565b9050919050565b6000602082019050818103600083015261431881613d6f565b9050919050565b6000602082019050818103600083015261433881613d92565b9050919050565b6000602082019050818103600083015261435881613db5565b9050919050565b6000602082019050818103600083015261437881613dd8565b9050919050565b6000602082019050818103600083015261439881613dfb565b9050919050565b600060208201905081810360008301526143b881613e1e565b9050919050565b600060208201905081810360008301526143d881613e64565b9050919050565b600060208201905081810360008301526143f881613e87565b9050919050565b6000602082019050818103600083015261441881613eaa565b9050919050565b6000602082019050818103600083015261443881613ecd565b9050919050565b6000602082019050818103600083015261445881613ef0565b9050919050565b6000602082019050818103600083015261447881613f13565b9050919050565b6000602082019050818103600083015261449881613f59565b9050919050565b600060208201905081810360008301526144b881613f7c565b9050919050565b600060208201905081810360008301526144d881613fc2565b9050919050565b600060208201905081810360008301526144f98184613fe5565b905092915050565b600060208201905061451660008301846140ab565b92915050565b6000614526614537565b905061453282826147c3565b919050565b6000604051905090565b600067ffffffffffffffff82111561455c5761455b6148fb565b5b6145658261492a565b9050602081019050919050565b600081519050919050565b600081519050919050565b600082825260208201905092915050565b600082825260208201905092915050565b600082825260208201905092915050565b600081905092915050565b60006145d182614745565b91506145dc83614745565b9250827fffffffffffffffffffffffffffffffffffffffffffffffffffffffffffffffff038211156146115761461061486e565b5b828201905092915050565b600061462782614745565b915061463283614745565b9250826146425761464161489d565b5b828204905092915050565b600061465882614745565b915061466383614745565b9250817fffffffffffffffffffffffffffffffffffffffffffffffffffffffffffffffff048311821515161561469c5761469b61486e565b5b828202905092915050565b60006146b282614745565b91506146bd83614745565b9250828210156146d0576146cf61486e565b5b828203905092915050565b60006146e682614725565b9050919050565b60008115159050919050565b60007fffffffff0000000000000000000000000000000000000000000000000000000082169050919050565b600073ffffffffffffffffffffffffffffffffffffffff82169050919050565b6000819050919050565b82818337600083830152505050565b60005b8381101561477c578082015181840152602081019050614761565b8381111561478b576000848401525b50505050565b600060028204905060018216806147a957607f821691505b602082108114156147bd576147bc6148cc565b5b50919050565b6147cc8261492a565b810181811067ffffffffffffffff821117156147eb576147ea6148fb565b5b80604052505050565b60006147ff82614745565b91507fffffffffffffffffffffffffffffffffffffffffffffffffffffffffffffffff8214156148325761483161486e565b5b600182019050919050565b600061484882614745565b915061485383614745565b9250826148635761486261489d565b5b828206905092915050565b7f4e487b7100000000000000000000000000000000000000000000000000000000600052601160045260246000fd5b7f4e487b7100000000000000000000000000000000000000000000000000000000600052601260045260246000fd5b7f4e487b7100000000000000000000000000000000000000000000000000000000600052602260045260246000fd5b7f4e487b7100000000000000000000000000000000000000000000000000000000600052604160045260246000fd5b6000601f19601f8301169050919050565b7f7b226e616d65223a202254656368537461636b20230000000000000000000000600082015250565b7f455243373231456e756d657261626c653a206f776e657220696e646578206f7560008201527f74206f6620626f756e6473000000000000000000000000000000000000000000602082015250565b7f4552433732313a207472616e7366657220746f206e6f6e20455243373231526560008201527f63656976657220696d706c656d656e7465720000000000000000000000000000602082015250565b7f4f776e61626c653a206e6577206f776e657220697320746865207a65726f206160008201527f6464726573730000000000000000000000000000000000000000000000000000602082015250565b7f4552433732313a20746f6b656e20616c7265616479206d696e74656400000000600082015250565b7f4552433732313a207472616e7366657220746f20746865207a65726f2061646460008201527f7265737300000000000000000000000000000000000000000000000000000000602082015250565b7f4552433732313a20617070726f766520746f2063616c6c657200000000000000600082015250565b7f4552433732313a206f70657261746f7220717565727920666f72206e6f6e657860008201527f697374656e7420746f6b656e0000000000000000000000000000000000000000602082015250565b7f4552433732313a20617070726f76652063616c6c6572206973206e6f74206f7760008201527f6e6572206e6f7220617070726f76656420666f7220616c6c0000000000000000602082015250565b7f4552433732313a2062616c616e636520717565727920666f7220746865207a6560008201527f726f206164647265737300000000000000000000000000000000000000000000602082015250565b7f4552433732313a206f776e657220717565727920666f72206e6f6e657869737460008201527f656e7420746f6b656e0000000000000000000000000000000000000000000000602082015250565b7f227d000000000000000000000000000000000000000000000000000000000000600082015250565b7f4552433732313a206d696e7420746f20746865207a65726f2061646472657373600082015250565b7f4552433732313a20617070726f76656420717565727920666f72206e6f6e657860008201527f697374656e7420746f6b656e0000000000000000000000000000000000000000602082015250565b7f4f776e61626c653a2063616c6c6572206973206e6f7420746865206f776e6572600082015250565b7f546f6b656e20494420696e76616c696400000000000000000000000000000000600082015250565b7f4552433732313a207472616e73666572206f6620746f6b656e2074686174206960008201527f73206e6f74206f776e0000000000000000000000000000000000000000000000602082015250565b7f4552433732313a20617070726f76616c20746f2063757272656e74206f776e6560008201527f7200000000000000000000000000000000000000000000000000000000000000602082015250565b7f646174613a6170706c69636174696f6e2f6a736f6e3b6261736536342c000000600082015250565b7f4552433732313a207472616e736665722063616c6c6572206973206e6f74206f60008201527f776e6572206e6f7220617070726f766564000000000000000000000000000000602082015250565b7f455243373231456e756d657261626c653a20676c6f62616c20696e646578206f60008201527f7574206f6620626f756e64730000000000000000000000000000000000000000602082015250565b7f222c20226465736372697074696f6e223a2022596f75722076657279206f776e60008201527f20756e697175652054656368537461636b20776869636820726570726573656e60208201527f747320796f752e222c2022696d616765223a2022646174613a696d6167652f7360408201527f76672b786d6c3b6261736536342c000000000000000000000000000000000000606082015250565b7f5265656e7472616e637947756172643a207265656e7472616e742063616c6c00600082015250565b614f53816146db565b8114614f5e57600080fd5b50565b614f6a816146ed565b8114614f7557600080fd5b50565b614f81816146f9565b8114614f8c57600080fd5b50565b614f9881614745565b8114614fa357600080fd5b5056fe3c2f746578743e3c7465787420783d223530252220793d223231302220646f6d696e616e742d626173656c696e653d226d6964646c652220746578742d616e63686f723d226d6964646c652220636c6173733d2262617365223e3c2f746578743e3c7465787420783d223530252220793d223135302220646f6d696e616e742d626173656c696e653d226d6964646c652220746578742d616e63686f723d226d6964646c652220636c6173733d2262617365223e3c2f746578743e3c7465787420783d223530252220793d223234302220646f6d696e616e742d626173656c696e653d226d6964646c652220746578742d616e63686f723d226d6964646c652220636c6173733d2262617365223e3c2f746578743e3c7465787420783d223530252220793d223138302220646f6d696e616e742d626173656c696e653d226d6964646c652220746578742d616e63686f723d226d6964646c652220636c6173733d2262617365223e4142434445464748494a4b4c4d4e4f505152535455565758595a6162636465666768696a6b6c6d6e6f707172737475767778797a303132333435363738392b2f3c73766720786d6c6e733d22687474703a2f2f7777772e77332e6f72672f323030302f73766722207072657365727665417370656374526174696f3d22784d696e594d696e206d656574222076696577426f783d223020302033353020333530223e3c7374796c653e2e62617365207b2066696c6c3a2077686974653b20666f6e742d7765696768743a20626f6c643b20666f6e742d66616d696c793a202248656c766574696361204e657565222c2048656c7665746963612c20417269616c2c2073616e732d73657269663b20666f6e742d73697a653a20313470783b207d3c2f7374796c653e3c726563742077696474683d223130302522206865696768743d2231303025222066696c6c3d22626c61636b22202f3e3c7465787420783d223530252220793d2239302220646f6d696e616e742d626173656c696e653d226d6964646c652220746578742d616e63686f723d226d6964646c652220636c6173733d2262617365223e3c2f746578743e3c7465787420783d223530252220793d223237302220646f6d696e616e742d626173656c696e653d226d6964646c652220746578742d616e63686f723d226d6964646c652220636c6173733d2262617365223e3c2f746578743e3c7465787420783d223530252220793d223132302220646f6d696e616e742d626173656c696e653d226d6964646c652220746578742d616e63686f723d226d6964646c652220636c6173733d2262617365223ea2646970667358221220de3231fc1272934043636078aa9c807aa130c762563207c7df2547c9252a174564736f6c63430008040033536f6d65204a564d206c616e677561676520796f75277665206e65766572206865617264206f66536f6d65204e6f53514c20646174616261736520796f75277665206e65766572206865617264206f66",
  "devdoc": {
    "kind": "dev",
    "methods": {
      "approve(address,uint256)": {
        "details": "See {IERC721-approve}."
      },
      "balanceOf(address)": {
        "details": "See {IERC721-balanceOf}."
      },
      "getApproved(uint256)": {
        "details": "See {IERC721-getApproved}."
      },
      "isApprovedForAll(address,address)": {
        "details": "See {IERC721-isApprovedForAll}."
      },
      "name()": {
        "details": "See {IERC721Metadata-name}."
      },
      "owner()": {
        "details": "Returns the address of the current owner."
      },
      "ownerOf(uint256)": {
        "details": "See {IERC721-ownerOf}."
      },
      "renounceOwnership()": {
        "details": "Leaves the contract without owner. It will not be possible to call `onlyOwner` functions anymore. Can only be called by the current owner. NOTE: Renouncing ownership will leave the contract without an owner, thereby removing any functionality that is only available to the owner."
      },
      "safeTransferFrom(address,address,uint256)": {
        "details": "See {IERC721-safeTransferFrom}."
      },
      "safeTransferFrom(address,address,uint256,bytes)": {
        "details": "See {IERC721-safeTransferFrom}."
      },
      "setApprovalForAll(address,bool)": {
        "details": "See {IERC721-setApprovalForAll}."
      },
      "supportsInterface(bytes4)": {
        "details": "See {IERC165-supportsInterface}."
      },
      "symbol()": {
        "details": "See {IERC721Metadata-symbol}."
      },
      "tokenByIndex(uint256)": {
        "details": "See {IERC721Enumerable-tokenByIndex}."
      },
      "tokenOfOwnerByIndex(address,uint256)": {
        "details": "See {IERC721Enumerable-tokenOfOwnerByIndex}."
      },
      "tokenURI(uint256)": {
        "details": "See {IERC721Metadata-tokenURI}."
      },
      "totalSupply()": {
        "details": "See {IERC721Enumerable-totalSupply}."
      },
      "transferFrom(address,address,uint256)": {
        "details": "See {IERC721-transferFrom}."
      },
      "transferOwnership(address)": {
        "details": "Transfers ownership of the contract to a new account (`newOwner`). Can only be called by the current owner."
      }
    },
    "version": 1
  },
  "solcInputHash": "e1880b595025e2b5513b9eb385607880",
  "storageLayout": {
    "storage": [
      {
        "astId": 169,
        "contract": "contracts/TechStack.sol:TechStack",
        "label": "_name",
        "offset": 0,
        "slot": "0",
        "type": "t_string_storage"
      },
      {
        "astId": 171,
        "contract": "contracts/TechStack.sol:TechStack",
        "label": "_symbol",
        "offset": 0,
        "slot": "1",
        "type": "t_string_storage"
      },
      {
        "astId": 175,
        "contract": "contracts/TechStack.sol:TechStack",
        "label": "_owners",
        "offset": 0,
        "slot": "2",
        "type": "t_mapping(t_uint256,t_address)"
      },
      {
        "astId": 179,
        "contract": "contracts/TechStack.sol:TechStack",
        "label": "_balances",
        "offset": 0,
        "slot": "3",
        "type": "t_mapping(t_address,t_uint256)"
      },
      {
        "astId": 183,
        "contract": "contracts/TechStack.sol:TechStack",
        "label": "_tokenApprovals",
        "offset": 0,
        "slot": "4",
        "type": "t_mapping(t_uint256,t_address)"
      },
      {
        "astId": 189,
        "contract": "contracts/TechStack.sol:TechStack",
        "label": "_operatorApprovals",
        "offset": 0,
        "slot": "5",
        "type": "t_mapping(t_address,t_mapping(t_address,t_bool))"
      },
      {
        "astId": 1108,
        "contract": "contracts/TechStack.sol:TechStack",
        "label": "_ownedTokens",
        "offset": 0,
        "slot": "6",
        "type": "t_mapping(t_address,t_mapping(t_uint256,t_uint256))"
      },
      {
        "astId": 1112,
        "contract": "contracts/TechStack.sol:TechStack",
        "label": "_ownedTokensIndex",
        "offset": 0,
        "slot": "7",
        "type": "t_mapping(t_uint256,t_uint256)"
      },
      {
        "astId": 1115,
        "contract": "contracts/TechStack.sol:TechStack",
        "label": "_allTokens",
        "offset": 0,
        "slot": "8",
        "type": "t_array(t_uint256)dyn_storage"
      },
      {
        "astId": 1119,
        "contract": "contracts/TechStack.sol:TechStack",
        "label": "_allTokensIndex",
        "offset": 0,
        "slot": "9",
        "type": "t_mapping(t_uint256,t_uint256)"
      },
      {
        "astId": 114,
        "contract": "contracts/TechStack.sol:TechStack",
        "label": "_status",
        "offset": 0,
        "slot": "10",
        "type": "t_uint256"
      },
      {
        "astId": 7,
        "contract": "contracts/TechStack.sol:TechStack",
        "label": "_owner",
        "offset": 0,
        "slot": "11",
        "type": "t_address"
      },
      {
        "astId": 2550,
        "contract": "contracts/TechStack.sol:TechStack",
        "label": "clouds",
        "offset": 0,
        "slot": "12",
        "type": "t_array(t_string_storage)dyn_storage"
      },
      {
        "astId": 2568,
        "contract": "contracts/TechStack.sol:TechStack",
        "label": "backends",
        "offset": 0,
        "slot": "13",
        "type": "t_array(t_string_storage)dyn_storage"
      },
      {
        "astId": 2583,
        "contract": "contracts/TechStack.sol:TechStack",
        "label": "databases",
        "offset": 0,
        "slot": "14",
        "type": "t_array(t_string_storage)dyn_storage"
      },
      {
        "astId": 2595,
        "contract": "contracts/TechStack.sol:TechStack",
        "label": "transports",
        "offset": 0,
        "slot": "15",
        "type": "t_array(t_string_storage)dyn_storage"
      },
      {
        "astId": 2609,
        "contract": "contracts/TechStack.sol:TechStack",
        "label": "frontendLangs",
        "offset": 0,
        "slot": "16",
        "type": "t_array(t_string_storage)dyn_storage"
      },
      {
        "astId": 2624,
        "contract": "contracts/TechStack.sol:TechStack",
        "label": "uiLibraries",
        "offset": 0,
        "slot": "17",
        "type": "t_array(t_string_storage)dyn_storage"
      },
      {
        "astId": 2637,
        "contract": "contracts/TechStack.sol:TechStack",
        "label": "states",
        "offset": 0,
        "slot": "18",
        "type": "t_array(t_string_storage)dyn_storage"
      }
    ],
    "types": {
      "t_address": {
        "encoding": "inplace",
        "label": "address",
        "numberOfBytes": "20"
      },
      "t_array(t_string_storage)dyn_storage": {
        "base": "t_string_storage",
        "encoding": "dynamic_array",
        "label": "string[]",
        "numberOfBytes": "32"
      },
      "t_array(t_uint256)dyn_storage": {
        "base": "t_uint256",
        "encoding": "dynamic_array",
        "label": "uint256[]",
        "numberOfBytes": "32"
      },
      "t_bool": {
        "encoding": "inplace",
        "label": "bool",
        "numberOfBytes": "1"
      },
      "t_mapping(t_address,t_bool)": {
        "encoding": "mapping",
        "key": "t_address",
        "label": "mapping(address => bool)",
        "numberOfBytes": "32",
        "value": "t_bool"
      },
      "t_mapping(t_address,t_mapping(t_address,t_bool))": {
        "encoding": "mapping",
        "key": "t_address",
        "label": "mapping(address => mapping(address => bool))",
        "numberOfBytes": "32",
        "value": "t_mapping(t_address,t_bool)"
      },
      "t_mapping(t_address,t_mapping(t_uint256,t_uint256))": {
        "encoding": "mapping",
        "key": "t_address",
        "label": "mapping(address => mapping(uint256 => uint256))",
        "numberOfBytes": "32",
        "value": "t_mapping(t_uint256,t_uint256)"
      },
      "t_mapping(t_address,t_uint256)": {
        "encoding": "mapping",
        "key": "t_address",
        "label": "mapping(address => uint256)",
        "numberOfBytes": "32",
        "value": "t_uint256"
      },
      "t_mapping(t_uint256,t_address)": {
        "encoding": "mapping",
        "key": "t_uint256",
        "label": "mapping(uint256 => address)",
        "numberOfBytes": "32",
        "value": "t_address"
      },
      "t_mapping(t_uint256,t_uint256)": {
        "encoding": "mapping",
        "key": "t_uint256",
        "label": "mapping(uint256 => uint256)",
        "numberOfBytes": "32",
        "value": "t_uint256"
      },
      "t_string_storage": {
        "encoding": "bytes",
        "label": "string",
        "numberOfBytes": "32"
      },
      "t_uint256": {
        "encoding": "inplace",
        "label": "uint256",
        "numberOfBytes": "32"
      }
    }
  },
  "transactionHash": "0xd353753c5dac8b4aea94d5bea876332579553ba7035e7827e2e386df8a4fa6c0",
  "userdoc": {
    "kind": "user",
    "methods": {},
    "version": 1
  }
}