{
  "abi": [
    {
      "inputs": [],
      "stateMutability": "payable",
      "type": "constructor"
    },
    {
      "anonymous": false,
      "inputs": [
        {
          "indexed": true,
          "internalType": "address",
          "name": "from",
          "type": "address"
        },
        {
          "indexed": false,
          "internalType": "uint256",
          "name": "timestamp",
          "type": "uint256"
        },
        {
          "indexed": false,
          "internalType": "string",
          "name": "message",
          "type": "string"
        }
      ],
      "name": "NewWave",
      "type": "event"
    },
    {
      "inputs": [],
      "name": "getAllWaves",
      "outputs": [
        {
          "components": [
            {
              "internalType": "address",
              "name": "waver",
              "type": "address"
            },
            {
              "internalType": "string",
              "name": "message",
              "type": "string"
            },
            {
              "internalType": "uint256",
              "name": "timestamp",
              "type": "uint256"
            }
          ],
          "internalType": "struct WavePortal.Wave[]",
          "name": "",
          "type": "tuple[]"
        }
      ],
      "stateMutability": "view",
      "type": "function"
    },
    {
      "inputs": [],
      "name": "getTotalWaves",
      "outputs": [
        {
          "internalType": "uint256",
          "name": "",
          "type": "uint256"
        }
      ],
      "stateMutability": "view",
      "type": "function"
    },
    {
      "inputs": [
        {
          "internalType": "address",
          "name": "",
          "type": "address"
        }
      ],
      "name": "lastWavedAt",
      "outputs": [
        {
          "internalType": "uint256",
          "name": "",
          "type": "uint256"
        }
      ],
      "stateMutability": "view",
      "type": "function"
    },
    {
      "inputs": [],
      "name": "totalWaves",
      "outputs": [
        {
          "internalType": "uint256",
          "name": "",
          "type": "uint256"
        }
      ],
      "stateMutability": "view",
      "type": "function"
    },
    {
      "inputs": [
        {
          "internalType": "string",
          "name": "_message",
          "type": "string"
        }
      ],
      "name": "wave",
      "outputs": [],
      "stateMutability": "nonpayable",
      "type": "function"
    }
  ],
  "address": "0x608F5C6c5A3FE88a4c2677b7a04A17944Be90789",
  "args": [],
  "bytecode": "0x60806040526200004f6040518060400160405280601981526020017f57652068617665206265656e20636f6e737472756374656421000000000000008152506200005560201b620006781760201c565b620001e9565b620000f5816040516024016200006c919062000162565b6040516020818303038152906040527f41304fac000000000000000000000000000000000000000000000000000000007bffffffffffffffffffffffffffffffffffffffffffffffffffffffff19166020820180517bffffffffffffffffffffffffffffffffffffffffffffffffffffffff8381831617835250505050620000f860201b60201c565b50565b60008151905060006a636f6e736f6c652e6c6f679050602083016000808483855afa5050505050565b60006200012e8262000186565b6200013a818562000191565b93506200014c818560208601620001a2565b6200015781620001d8565b840191505092915050565b600060208201905081810360008301526200017e818462000121565b905092915050565b600081519050919050565b600082825260208201905092915050565b60005b83811015620001c2578082015181840152602081019050620001a5565b83811115620001d2576000848401525b50505050565b6000601f19601f8301169050919050565b61118680620001f96000396000f3fe608060405234801561001057600080fd5b50600436106100575760003560e01c8063291bcab31461005c578063449d46c01461007a5780639a2cdc0814610096578063a42a4663146100b4578063bd43a908146100e4575b600080fd5b610064610102565b6040516100719190610d28565b60405180910390f35b610094600480360381019061008f91906109bb565b610108565b005b61009e610506565b6040516100ab9190610d28565b60405180910390f35b6100ce60048036038101906100c99190610992565b61050f565b6040516100db9190610d28565b60405180910390f35b6100ec610527565b6040516100f99190610c24565b60405180910390f35b60005481565b42610384600360003373ffffffffffffffffffffffffffffffffffffffff1673ffffffffffffffffffffffffffffffffffffffff168152602001908152602001600020546101569190610e3a565b10610196576040517f08c379a000000000000000000000000000000000000000000000000000000000815260040161018d90610d08565b60405180910390fd5b42600360003373ffffffffffffffffffffffffffffffffffffffff1673ffffffffffffffffffffffffffffffffffffffff1681526020019081526020016000208190555060016000808282546101ec9190610e3a565b925050819055506102326040518060400160405280600d81526020017f257320686173207761766564210000000000000000000000000000000000000081525033610711565b600260405180606001604052803373ffffffffffffffffffffffffffffffffffffffff16815260200183815260200142815250908060018154018082558091505060019003906000526020600020906003020160009091909190915060008201518160000160006101000a81548173ffffffffffffffffffffffffffffffffffffffff021916908373ffffffffffffffffffffffffffffffffffffffff16021790555060208201518160010190805190602001906102f1929190610872565b506040820151816002015550506000606460015442446103119190610e3a565b61031b9190610e3a565b6103259190610f71565b90506103666040518060400160405280601681526020017f52616e646f6d20232067656e6572617465643a20257300000000000000000000815250826107ad565b8060018190555060328110156104b2576103b56040518060400160405280600781526020017f257320776f6e210000000000000000000000000000000000000000000000000081525033610711565b6000655af3107a4000905047811115610403576040517f08c379a00000000000000000000000000000000000000000000000000000000081526004016103fa90610ce8565b60405180910390fd5b60003373ffffffffffffffffffffffffffffffffffffffff168260405161042990610c0f565b60006040518083038185875af1925050503d8060008114610466576040519150601f19603f3d011682016040523d82523d6000602084013e61046b565b606091505b50509050806104af576040517f08c379a00000000000000000000000000000000000000000000000000000000081526004016104a690610cc8565b60405180910390fd5b50505b3373ffffffffffffffffffffffffffffffffffffffff167f5f7e16dc676677766a70e9c5628aa6c54ddb8b6e5188e2ae1e1f17f1ffbea71642846040516104fa929190610d43565b60405180910390a25050565b60008054905090565b60036020528060005260406000206000915090505481565b60606002805480602002602001604051908101604052809291908181526020016000905b8282101561066f57838290600052602060002090600302016040518060600160405290816000820160009054906101000a900473ffffffffffffffffffffffffffffffffffffffff1673ffffffffffffffffffffffffffffffffffffffff1673ffffffffffffffffffffffffffffffffffffffff1681526020016001820180546105d490610f0e565b80601f016020809104026020016040519081016040528092919081815260200182805461060090610f0e565b801561064d5780601f106106225761010080835404028352916020019161064d565b820191906000526020600020905b81548152906001019060200180831161063057829003601f168201915b505050505081526020016002820154815250508152602001906001019061054b565b50505050905090565b61070e8160405160240161068c9190610c46565b6040516020818303038152906040527f41304fac000000000000000000000000000000000000000000000000000000007bffffffffffffffffffffffffffffffffffffffffffffffffffffffff19166020820180517bffffffffffffffffffffffffffffffffffffffffffffffffffffffff8381831617835250505050610849565b50565b6107a98282604051602401610727929190610c68565b6040516020818303038152906040527f319af333000000000000000000000000000000000000000000000000000000007bffffffffffffffffffffffffffffffffffffffffffffffffffffffff19166020820180517bffffffffffffffffffffffffffffffffffffffffffffffffffffffff8381831617835250505050610849565b5050565b61084582826040516024016107c3929190610c98565b6040516020818303038152906040527f9710a9d0000000000000000000000000000000000000000000000000000000007bffffffffffffffffffffffffffffffffffffffffffffffffffffffff19166020820180517bffffffffffffffffffffffffffffffffffffffffffffffffffffffff8381831617835250505050610849565b5050565b60008151905060006a636f6e736f6c652e6c6f679050602083016000808483855afa5050505050565b82805461087e90610f0e565b90600052602060002090601f0160209004810192826108a057600085556108e7565b82601f106108b957805160ff19168380011785556108e7565b828001600101855582156108e7579182015b828111156108e65782518255916020019190600101906108cb565b5b5090506108f491906108f8565b5090565b5b808211156109115760008160009055506001016108f9565b5090565b600061092861092384610d98565b610d73565b90508281526020810184848401111561094057600080fd5b61094b848285610ecc565b509392505050565b60008135905061096281611139565b92915050565b600082601f83011261097957600080fd5b8135610989848260208601610915565b91505092915050565b6000602082840312156109a457600080fd5b60006109b284828501610953565b91505092915050565b6000602082840312156109cd57600080fd5b600082013567ffffffffffffffff8111156109e757600080fd5b6109f384828501610968565b91505092915050565b6000610a088383610ba1565b905092915050565b610a1981610e90565b82525050565b610a2881610e90565b82525050565b6000610a3982610dd9565b610a438185610dfc565b935083602082028501610a5585610dc9565b8060005b85811015610a915784840389528151610a7285826109fc565b9450610a7d83610def565b925060208a01995050600181019050610a59565b50829750879550505050505092915050565b6000610aae82610de4565b610ab88185610e18565b9350610ac8818560208601610edb565b610ad18161105e565b840191505092915050565b6000610ae782610de4565b610af18185610e29565b9350610b01818560208601610edb565b610b0a8161105e565b840191505092915050565b6000610b22602783610e29565b9150610b2d8261106f565b604082019050919050565b6000610b45603583610e29565b9150610b50826110be565b604082019050919050565b6000610b68600083610e0d565b9150610b738261110d565b600082019050919050565b6000610b8b600883610e29565b9150610b9682611110565b602082019050919050565b6000606083016000830151610bb96000860182610a10565b5060208301518482036020860152610bd18282610aa3565b9150506040830151610be66040860182610bf1565b508091505092915050565b610bfa81610ec2565b82525050565b610c0981610ec2565b82525050565b6000610c1a82610b5b565b9150819050919050565b60006020820190508181036000830152610c3e8184610a2e565b905092915050565b60006020820190508181036000830152610c608184610adc565b905092915050565b60006040820190508181036000830152610c828185610adc565b9050610c916020830184610a1f565b9392505050565b60006040820190508181036000830152610cb28185610adc565b9050610cc16020830184610c00565b9392505050565b60006020820190508181036000830152610ce181610b15565b9050919050565b60006020820190508181036000830152610d0181610b38565b9050919050565b60006020820190508181036000830152610d2181610b7e565b9050919050565b6000602082019050610d3d6000830184610c00565b92915050565b6000604082019050610d586000830185610c00565b8181036020830152610d6a8184610adc565b90509392505050565b6000610d7d610d8e565b9050610d898282610f40565b919050565b6000604051905090565b600067ffffffffffffffff821115610db357610db261102f565b5b610dbc8261105e565b9050602081019050919050565b6000819050602082019050919050565b600081519050919050565b600081519050919050565b6000602082019050919050565b600082825260208201905092915050565b600081905092915050565b600082825260208201905092915050565b600082825260208201905092915050565b6000610e4582610ec2565b9150610e5083610ec2565b9250827fffffffffffffffffffffffffffffffffffffffffffffffffffffffffffffffff03821115610e8557610e84610fa2565b5b828201905092915050565b6000610e9b82610ea2565b9050919050565b600073ffffffffffffffffffffffffffffffffffffffff82169050919050565b6000819050919050565b82818337600083830152505050565b60005b83811015610ef9578082015181840152602081019050610ede565b83811115610f08576000848401525b50505050565b60006002820490506001821680610f2657607f821691505b60208210811415610f3a57610f39611000565b5b50919050565b610f498261105e565b810181811067ffffffffffffffff82111715610f6857610f6761102f565b5b80604052505050565b6000610f7c82610ec2565b9150610f8783610ec2565b925082610f9757610f96610fd1565b5b828206905092915050565b7f4e487b7100000000000000000000000000000000000000000000000000000000600052601160045260246000fd5b7f4e487b7100000000000000000000000000000000000000000000000000000000600052601260045260246000fd5b7f4e487b7100000000000000000000000000000000000000000000000000000000600052602260045260246000fd5b7f4e487b7100000000000000000000000000000000000000000000000000000000600052604160045260246000fd5b6000601f19601f8301169050919050565b7f4661696c656420746f207769746864726177206d6f6e65792066726f6d20636f60008201527f6e74726163742e00000000000000000000000000000000000000000000000000602082015250565b7f547279696e6720746f207769746864726177206d6f7265206d6f6e657920746860008201527f616e207468657920636f6e7472616374206861732e0000000000000000000000602082015250565b50565b7f576169742031356d000000000000000000000000000000000000000000000000600082015250565b61114281610e90565b811461114d57600080fd5b5056fea2646970667358221220a436692ae985e51accc59505a80e6a184f98df0e75687f693c04273ceb67e91264736f6c63430008040033",
  "devdoc": {
    "kind": "dev",
    "methods": {},
    "version": 1
  },
  "solcInputHash": "4e579a862b277402e813521aa250bee2",
  "storageLayout": {
    "storage": [
      {
        "astId": 3459,
        "contract": "contracts/WavePoral.sol:WavePortal",
        "label": "totalWaves",
        "offset": 0,
        "slot": "0",
        "type": "t_uint256"
      },
      {
        "astId": 3461,
        "contract": "contracts/WavePoral.sol:WavePortal",
        "label": "seed",
        "offset": 0,
        "slot": "1",
        "type": "t_uint256"
      },
      {
        "astId": 3480,
        "contract": "contracts/WavePoral.sol:WavePortal",
        "label": "waves",
        "offset": 0,
        "slot": "2",
        "type": "t_array(t_struct(Wave)3476_storage)dyn_storage"
      },
      {
        "astId": 3484,
        "contract": "contracts/WavePoral.sol:WavePortal",
        "label": "lastWavedAt",
        "offset": 0,
        "slot": "3",
        "type": "t_mapping(t_address,t_uint256)"
      }
    ],
    "types": {
      "t_address": {
        "encoding": "inplace",
        "label": "address",
        "numberOfBytes": "20"
      },
      "t_array(t_struct(Wave)3476_storage)dyn_storage": {
        "base": "t_struct(Wave)3476_storage",
        "encoding": "dynamic_array",
        "label": "struct WavePortal.Wave[]",
        "numberOfBytes": "32"
      },
      "t_mapping(t_address,t_uint256)": {
        "encoding": "mapping",
        "key": "t_address",
        "label": "mapping(address => uint256)",
        "numberOfBytes": "32",
        "value": "t_uint256"
      },
      "t_string_storage": {
        "encoding": "bytes",
        "label": "string",
        "numberOfBytes": "32"
      },
      "t_struct(Wave)3476_storage": {
        "encoding": "inplace",
        "label": "struct WavePortal.Wave",
        "members": [
          {
            "astId": 3471,
            "contract": "contracts/WavePoral.sol:WavePortal",
            "label": "waver",
            "offset": 0,
            "slot": "0",
            "type": "t_address"
          },
          {
            "astId": 3473,
            "contract": "contracts/WavePoral.sol:WavePortal",
            "label": "message",
            "offset": 0,
            "slot": "1",
            "type": "t_string_storage"
          },
          {
            "astId": 3475,
            "contract": "contracts/WavePoral.sol:WavePortal",
            "label": "timestamp",
            "offset": 0,
            "slot": "2",
            "type": "t_uint256"
          }
        ],
        "numberOfBytes": "96"
      },
      "t_uint256": {
        "encoding": "inplace",
        "label": "uint256",
        "numberOfBytes": "32"
      }
    }
  },
  "transactionHash": "0x1cf1a15b893105e00d62a21983a264a9eb8a992147b75f0a45d631ca46426820",
  "userdoc": {
    "kind": "user",
    "methods": {},
    "version": 1
  }
}