{
  "abi": [
    {
      "inputs": [
        {
          "internalType": "string",
          "name": "_greeting",
          "type": "string"
        }
      ],
      "stateMutability": "nonpayable",
      "type": "constructor"
    },
    {
      "inputs": [],
      "name": "GreeterError",
      "type": "error"
    },
    {
      "inputs": [],
      "name": "greet",
      "outputs": [
        {
          "internalType": "string",
          "name": "",
          "type": "string"
        }
      ],
      "stateMutability": "view",
      "type": "function"
    },
    {
      "inputs": [],
      "name": "greeting",
      "outputs": [
        {
          "internalType": "string",
          "name": "",
          "type": "string"
        }
      ],
      "stateMutability": "view",
      "type": "function"
    },
    {
      "inputs": [
        {
          "internalType": "string",
          "name": "_greeting",
          "type": "string"
        }
      ],
      "name": "setGreeting",
      "outputs": [],
      "stateMutability": "nonpayable",
      "type": "function"
    },
    {
      "inputs": [],
      "name": "throwError",
      "outputs": [],
      "stateMutability": "pure",
      "type": "function"
    }
  ],
  "address": "0x73cF04DC8eF9A1554A51910b6EE17d5c8B987CBa",
  "args": [
    "Hello, world!"
  ],
  "bytecode": "0x60806040523480156200001157600080fd5b5060405162000d3038038062000d30833981810160405281019062000037919062000278565b6200006760405180606001604052806022815260200162000d0e60229139826200008760201b620002cc1760201c565b80600090805190602001906200007f92919062000156565b5050620004c5565b620001298282604051602401620000a0929190620002fe565b6040516020818303038152906040527f4b5c4277000000000000000000000000000000000000000000000000000000007bffffffffffffffffffffffffffffffffffffffffffffffffffffffff19166020820180517bffffffffffffffffffffffffffffffffffffffffffffffffffffffff83818316178352505050506200012d60201b60201c565b5050565b60008151905060006a636f6e736f6c652e6c6f679050602083016000808483855afa5050505050565b8280546200016490620003ea565b90600052602060002090601f016020900481019282620001885760008555620001d4565b82601f10620001a357805160ff1916838001178555620001d4565b82800160010185558215620001d4579182015b82811115620001d3578251825591602001919060010190620001b6565b5b509050620001e39190620001e7565b5090565b5b8082111562000202576000816000905550600101620001e8565b5090565b60006200021d620002178462000362565b62000339565b9050828152602081018484840111156200023657600080fd5b62000243848285620003b4565b509392505050565b600082601f8301126200025d57600080fd5b81516200026f84826020860162000206565b91505092915050565b6000602082840312156200028b57600080fd5b600082015167ffffffffffffffff811115620002a657600080fd5b620002b4848285016200024b565b91505092915050565b6000620002ca8262000398565b620002d68185620003a3565b9350620002e8818560208601620003b4565b620002f381620004b4565b840191505092915050565b600060408201905081810360008301526200031a8185620002bd565b90508181036020830152620003308184620002bd565b90509392505050565b60006200034562000358565b905062000353828262000420565b919050565b6000604051905090565b600067ffffffffffffffff82111562000380576200037f62000485565b5b6200038b82620004b4565b9050602081019050919050565b600081519050919050565b600082825260208201905092915050565b60005b83811015620003d4578082015181840152602081019050620003b7565b83811115620003e4576000848401525b50505050565b600060028204905060018216806200040357607f821691505b602082108114156200041a576200041962000456565b5b50919050565b6200042b82620004b4565b810181811067ffffffffffffffff821117156200044d576200044c62000485565b5b80604052505050565b7f4e487b7100000000000000000000000000000000000000000000000000000000600052602260045260246000fd5b7f4e487b7100000000000000000000000000000000000000000000000000000000600052604160045260246000fd5b6000601f19601f8301169050919050565b61083980620004d56000396000f3fe608060405234801561001057600080fd5b506004361061004c5760003560e01c80632f7643a814610051578063a41368621461005b578063cfae321714610077578063ef690cc014610095575b600080fd5b6100596100b3565b005b6100756004803603810190610070919061053b565b6100e5565b005b61007f6101ac565b60405161008c91906105b5565b60405180910390f35b61009d61023e565b6040516100aa91906105b5565b60405180910390f35b6040517fc8508fc300000000000000000000000000000000000000000000000000000000815260040160405180910390fd5b6101926040518060600160405280602381526020016107e1602391396000805461010e9061070e565b80601f016020809104026020016040519081016040528092919081815260200182805461013a9061070e565b80156101875780601f1061015c57610100808354040283529160200191610187565b820191906000526020600020905b81548152906001019060200180831161016a57829003601f168201915b505050505083610368565b80600090805190602001906101a8929190610430565b5050565b6060600080546101bb9061070e565b80601f01602080910402602001604051908101604052809291908181526020018280546101e79061070e565b80156102345780601f1061020957610100808354040283529160200191610234565b820191906000526020600020905b81548152906001019060200180831161021757829003601f168201915b5050505050905090565b6000805461024b9061070e565b80601f01602080910402602001604051908101604052809291908181526020018280546102779061070e565b80156102c45780601f10610299576101008083540402835291602001916102c4565b820191906000526020600020905b8154815290600101906020018083116102a757829003601f168201915b505050505081565b61036482826040516024016102e29291906105d7565b6040516020818303038152906040527f4b5c4277000000000000000000000000000000000000000000000000000000007bffffffffffffffffffffffffffffffffffffffffffffffffffffffff19166020820180517bffffffffffffffffffffffffffffffffffffffffffffffffffffffff8381831617835250505050610407565b5050565b6104028383836040516024016103809392919061060e565b6040516020818303038152906040527f2ced7cef000000000000000000000000000000000000000000000000000000007bffffffffffffffffffffffffffffffffffffffffffffffffffffffff19166020820180517bffffffffffffffffffffffffffffffffffffffffffffffffffffffff8381831617835250505050610407565b505050565b60008151905060006a636f6e736f6c652e6c6f679050602083016000808483855afa5050505050565b82805461043c9061070e565b90600052602060002090601f01602090048101928261045e57600085556104a5565b82601f1061047757805160ff19168380011785556104a5565b828001600101855582156104a5579182015b828111156104a4578251825591602001919060010190610489565b5b5090506104b291906104b6565b5090565b5b808211156104cf5760008160009055506001016104b7565b5090565b60006104e66104e18461067f565b61065a565b9050828152602081018484840111156104fe57600080fd5b6105098482856106cc565b509392505050565b600082601f83011261052257600080fd5b81356105328482602086016104d3565b91505092915050565b60006020828403121561054d57600080fd5b600082013567ffffffffffffffff81111561056757600080fd5b61057384828501610511565b91505092915050565b6000610587826106b0565b61059181856106bb565b93506105a18185602086016106db565b6105aa816107cf565b840191505092915050565b600060208201905081810360008301526105cf818461057c565b905092915050565b600060408201905081810360008301526105f1818561057c565b90508181036020830152610605818461057c565b90509392505050565b60006060820190508181036000830152610628818661057c565b9050818103602083015261063c818561057c565b90508181036040830152610650818461057c565b9050949350505050565b6000610664610675565b90506106708282610740565b919050565b6000604051905090565b600067ffffffffffffffff82111561069a576106996107a0565b5b6106a3826107cf565b9050602081019050919050565b600081519050919050565b600082825260208201905092915050565b82818337600083830152505050565b60005b838110156106f95780820151818401526020810190506106de565b83811115610708576000848401525b50505050565b6000600282049050600182168061072657607f821691505b6020821081141561073a57610739610771565b5b50919050565b610749826107cf565b810181811067ffffffffffffffff82111715610768576107676107a0565b5b80604052505050565b7f4e487b7100000000000000000000000000000000000000000000000000000000600052602260045260246000fd5b7f4e487b7100000000000000000000000000000000000000000000000000000000600052604160045260246000fd5b6000601f19601f830116905091905056fe4368616e67696e67206772656574696e672066726f6d202725732720746f2027257327a264697066735822122047d5f4fbfdbe7de1bf5225e7b056aa40b2518feb826f9b9ff50828c51635391964736f6c634300080400334465706c6f79696e67206120477265657465722077697468206772656574696e673a",
  "devdoc": {
    "kind": "dev",
    "methods": {},
    "version": 1
  },
  "solcInputHash": "e1880b595025e2b5513b9eb385607880",
  "storageLayout": {
    "storage": [
      {
        "astId": 2458,
        "contract": "contracts/Greeter.sol:Greeter",
        "label": "greeting",
        "offset": 0,
        "slot": "0",
        "type": "t_string_storage"
      }
    ],
    "types": {
      "t_string_storage": {
        "encoding": "bytes",
        "label": "string",
        "numberOfBytes": "32"
      }
    }
  },
  "transactionHash": "0x5c1f2e7aacc3e4d81791d3355362b7f7d5b0976bbc0ea4c83eac59a7a58771e9",
  "userdoc": {
    "kind": "user",
    "methods": {},
    "version": 1
  }
}